{
  "contractName": "Market",
  "abi": [
    {
      "inputs": [
        {
          "internalType": "address",
          "name": "vault",
          "type": "address"
        },
        {
          "internalType": "uint8",
          "name": "fee",
          "type": "uint8"
        }
      ],
      "stateMutability": "nonpayable",
      "type": "constructor"
    },
    {
      "anonymous": false,
      "inputs": [
        {
          "indexed": true,
          "internalType": "address",
          "name": "previousOwner",
          "type": "address"
        },
        {
          "indexed": true,
          "internalType": "address",
          "name": "newOwner",
          "type": "address"
        }
      ],
      "name": "OwnershipTransferred",
      "type": "event"
    },
    {
      "anonymous": false,
      "inputs": [
        {
          "indexed": false,
          "internalType": "bytes32",
          "name": "propositionId",
          "type": "bytes32"
        },
        {
          "indexed": false,
          "internalType": "uint256",
          "name": "amount",
          "type": "uint256"
        },
        {
          "indexed": false,
          "internalType": "uint256",
          "name": "payout",
          "type": "uint256"
        },
        {
          "indexed": true,
          "internalType": "address",
          "name": "owner",
          "type": "address"
        }
      ],
      "name": "Placed",
      "type": "event"
    },
    {
      "anonymous": false,
      "inputs": [
        {
          "indexed": false,
          "internalType": "uint256",
          "name": "id",
          "type": "uint256"
        },
        {
          "indexed": false,
          "internalType": "uint256",
          "name": "payout",
          "type": "uint256"
        },
        {
          "indexed": true,
          "internalType": "address",
          "name": "owner",
          "type": "address"
        }
      ],
      "name": "Settled",
      "type": "event"
    },
    {
      "inputs": [],
      "name": "min",
      "outputs": [
        {
          "internalType": "uint256",
          "name": "",
          "type": "uint256"
        }
      ],
      "stateMutability": "view",
      "type": "function"
    },
    {
      "inputs": [],
      "name": "owner",
      "outputs": [
        {
          "internalType": "address",
          "name": "",
          "type": "address"
        }
      ],
      "stateMutability": "view",
      "type": "function"
    },
    {
      "inputs": [],
      "name": "renounceOwnership",
      "outputs": [],
      "stateMutability": "nonpayable",
      "type": "function"
    },
    {
      "inputs": [],
      "name": "timeout",
      "outputs": [
        {
          "internalType": "uint256",
          "name": "",
          "type": "uint256"
        }
      ],
      "stateMutability": "view",
      "type": "function"
    },
    {
      "inputs": [
        {
          "internalType": "address",
          "name": "newOwner",
          "type": "address"
        }
      ],
      "name": "transferOwnership",
      "outputs": [],
      "stateMutability": "nonpayable",
      "type": "function"
    },
    {
      "inputs": [],
      "name": "getTarget",
      "outputs": [
        {
          "internalType": "uint8",
          "name": "",
          "type": "uint8"
        }
      ],
      "stateMutability": "view",
      "type": "function"
    },
    {
      "inputs": [],
      "name": "getTotalInplay",
      "outputs": [
        {
          "internalType": "uint256",
          "name": "",
          "type": "uint256"
        }
      ],
      "stateMutability": "view",
      "type": "function"
    },
    {
      "inputs": [],
      "name": "getTotalLiability",
      "outputs": [
        {
          "internalType": "uint256",
          "name": "",
          "type": "uint256"
        }
      ],
      "stateMutability": "view",
      "type": "function"
    },
    {
      "inputs": [],
      "name": "getVaultAddress",
      "outputs": [
        {
          "internalType": "address",
          "name": "",
          "type": "address"
        }
      ],
      "stateMutability": "view",
      "type": "function"
    },
    {
      "inputs": [
        {
          "internalType": "uint64",
          "name": "id",
          "type": "uint64"
        }
      ],
      "name": "getExpiry",
      "outputs": [
        {
          "internalType": "uint256",
          "name": "",
          "type": "uint256"
        }
      ],
      "stateMutability": "view",
      "type": "function"
    },
    {
      "inputs": [
        {
          "internalType": "bytes32",
          "name": "marketId",
          "type": "bytes32"
        }
      ],
      "name": "getMarketTotal",
      "outputs": [
        {
          "internalType": "uint256",
          "name": "",
          "type": "uint256"
        }
      ],
      "stateMutability": "view",
      "type": "function"
    },
    {
      "inputs": [
        {
          "internalType": "uint256",
          "name": "index",
          "type": "uint256"
        }
      ],
      "name": "getBetByIndex",
      "outputs": [
        {
          "internalType": "uint256",
          "name": "",
          "type": "uint256"
        },
        {
          "internalType": "uint256",
          "name": "",
          "type": "uint256"
        },
        {
          "internalType": "uint256",
          "name": "",
          "type": "uint256"
        },
        {
          "internalType": "bool",
          "name": "",
          "type": "bool"
        },
        {
          "internalType": "address",
          "name": "",
          "type": "address"
        }
      ],
      "stateMutability": "view",
      "type": "function"
    },
    {
      "inputs": [
        {
          "internalType": "int256",
          "name": "wager",
          "type": "int256"
        },
        {
          "internalType": "int256",
          "name": "odds",
          "type": "int256"
        },
        {
          "internalType": "bytes32",
          "name": "propositionId",
          "type": "bytes32"
        }
      ],
      "name": "getOdds",
      "outputs": [
        {
          "internalType": "int256",
          "name": "",
          "type": "int256"
        }
      ],
      "stateMutability": "view",
      "type": "function"
    },
    {
      "inputs": [
        {
          "internalType": "bytes32",
          "name": "propositionId",
          "type": "bytes32"
        },
        {
          "internalType": "uint256",
          "name": "wager",
          "type": "uint256"
        },
        {
          "internalType": "uint256",
          "name": "odds",
          "type": "uint256"
        }
      ],
      "name": "getPotentialPayout",
      "outputs": [
        {
          "internalType": "uint256",
          "name": "",
          "type": "uint256"
        }
      ],
      "stateMutability": "view",
      "type": "function"
    },
    {
      "inputs": [
        {
          "internalType": "bytes32",
          "name": "nonce",
          "type": "bytes32"
        },
        {
          "internalType": "bytes32",
          "name": "propositionId",
          "type": "bytes32"
        },
        {
          "internalType": "bytes32",
          "name": "marketId",
          "type": "bytes32"
        },
        {
          "internalType": "uint256",
          "name": "wager",
          "type": "uint256"
        },
        {
          "internalType": "uint256",
          "name": "odds",
          "type": "uint256"
        },
        {
          "internalType": "uint256",
          "name": "close",
          "type": "uint256"
        },
        {
          "internalType": "uint256",
          "name": "end",
          "type": "uint256"
        },
        {
          "internalType": "bytes",
          "name": "signature",
          "type": "bytes"
        }
      ],
      "name": "back",
      "outputs": [
        {
          "internalType": "uint256",
          "name": "",
          "type": "uint256"
        }
      ],
      "stateMutability": "nonpayable",
      "type": "function"
    },
    {
      "inputs": [
        {
          "internalType": "uint256",
          "name": "id",
          "type": "uint256"
        },
        {
          "internalType": "bytes",
          "name": "signature",
          "type": "bytes"
        }
      ],
      "name": "settle",
      "outputs": [],
      "stateMutability": "nonpayable",
      "type": "function"
    },
    {
      "inputs": [
        {
          "internalType": "bytes32",
          "name": "nonce",
          "type": "bytes32"
        },
        {
          "internalType": "bytes32",
          "name": "marketId",
          "type": "bytes32"
        },
        {
          "internalType": "bytes32",
          "name": "propositionId",
          "type": "bytes32"
        },
        {
          "internalType": "bytes",
          "name": "signature",
          "type": "bytes"
        }
      ],
      "name": "settleMarket",
      "outputs": [],
      "stateMutability": "nonpayable",
      "type": "function"
    }
  ],
  "bytecode": "0x6101206040523480156200001257600080fd5b5060405162002cc738038062002cc78339818101604052810190620000389190620002d3565b620000586200004c6200015f60201b60201c565b6200016760201b60201c565b600073ffffffffffffffffffffffffffffffffffffffff168273ffffffffffffffffffffffffffffffffffffffff161415620000cb576040517f08c379a0000000000000000000000000000000000000000000000000000000008152600401620000c2906200037b565b60405180910390fd5b3073ffffffffffffffffffffffffffffffffffffffff1660c08173ffffffffffffffffffffffffffffffffffffffff16815250508173ffffffffffffffffffffffffffffffffffffffff1660a08173ffffffffffffffffffffffffffffffffffffffff16815250508060ff1660808160ff168152505062278d0060e08181525050610e10610100818152505050506200039d565b600033905090565b60008060009054906101000a900473ffffffffffffffffffffffffffffffffffffffff169050816000806101000a81548173ffffffffffffffffffffffffffffffffffffffff021916908373ffffffffffffffffffffffffffffffffffffffff1602179055508173ffffffffffffffffffffffffffffffffffffffff168173ffffffffffffffffffffffffffffffffffffffff167f8be0079c531659141344cd1fd0a4f28419497f9722a3daafe3b4186f6b6457e060405160405180910390a35050565b600080fd5b600073ffffffffffffffffffffffffffffffffffffffff82169050919050565b60006200025d8262000230565b9050919050565b6200026f8162000250565b81146200027b57600080fd5b50565b6000815190506200028f8162000264565b92915050565b600060ff82169050919050565b620002ad8162000295565b8114620002b957600080fd5b50565b600081519050620002cd81620002a2565b92915050565b60008060408385031215620002ed57620002ec6200022b565b5b6000620002fd858286016200027e565b92505060206200031085828601620002bc565b9150509250929050565b600082825260208201905092915050565b7f496e76616c696420616464726573730000000000000000000000000000000000600082015250565b600062000363600f836200031a565b915062000370826200032b565b602082019050919050565b60006020820190508181036000830152620003968162000354565b9050919050565b60805160a05160c05160e051610100516128ad6200041a6000396000610e66015260008181610723015261150b015260008181610a6d01528181610b2e01526111c50152600081816106fd015281816108920152818161099001528181610b0d0152818161118901526115920152600061084901526128ad6000f3fe608060405234801561001057600080fd5b506004361061010b5760003560e01c80638da5cb5b116100a2578063f00e6a2a11610071578063f00e6a2a146102be578063f1ef14b2146102dc578063f20c9596146102fa578063f2fde38b1461032a578063f8897945146103465761010b565b80638da5cb5b14610210578063bf6117881461022e578063e4650fac1461025e578063e8ee7b9b1461028e5761010b565b8063569ca13d116100de578063569ca13d146101ae57806365cacaa4146101ca57806370dea79a146101e8578063715018a6146102065761010b565b8063064c770214610110578063129c45fc1461014057806327f5c8ca1461017457806339c2ebb914610192575b600080fd5b61012a6004803603810190610125919061174c565b610364565b6040516101379190611792565b60405180910390f35b61015a600480360381019061015591906117d9565b610381565b60405161016b959493929190611862565b60405180910390f35b61017c6103a5565b6040516101899190611792565b60405180910390f35b6101ac60048036038101906101a7919061191a565b6103af565b005b6101c860048036038101906101c3919061197a565b6104b1565b005b6101d26106f9565b6040516101df9190611a02565b60405180910390f35b6101f0610721565b6040516101fd9190611792565b60405180910390f35b61020e610745565b005b610218610759565b6040516102259190611a02565b60405180910390f35b61024860048036038101906102439190611a1d565b610782565b6040516102559190611792565b60405180910390f35b61027860048036038101906102739190611ab0565b610798565b6040516102859190611792565b60405180910390f35b6102a860048036038101906102a39190611b13565b6107aa565b6040516102b59190611b75565b60405180910390f35b6102c6610845565b6040516102d39190611bac565b60405180910390f35b6102e461086d565b6040516102f19190611792565b60405180910390f35b610314600480360381019061030f9190611bc7565b610877565b6040516103219190611792565b60405180910390f35b610344600480360381019061033f9190611cc9565b610de0565b005b61034e610e64565b60405161035b9190611792565b60405180910390f35b600060046000838152602001908152602001600020549050919050565b600080600080600061039286610e88565b9450945094509450945091939590929450565b6000600854905090565b6000836040516020016103c29190611d17565b604051602081830303815290604052805190602001209050600061042a8285858080601f016020809104026020016040519081016040528093929190818152602001838380828437600081840152601f19601f82011690508083019250505050505050610f86565b9050610434610759565b73ffffffffffffffffffffffffffffffffffffffff168173ffffffffffffffffffffffffffffffffffffffff16146104a1576040517f08c379a000000000000000000000000000000000000000000000000000000000815260040161049890611d8f565b60405180910390fd5b6104aa85610ffb565b5050505050565b6000801b84141580156104c757506000801b8314155b610506576040517f08c379a00000000000000000000000000000000000000000000000000000000081526004016104fd90611dfb565b60405180910390fd5b600085848660405160200161051d93929190611e3c565b60405160208183030381529060405280519060200120905060006105858285858080601f016020809104026020016040519081016040528093929190818152602001838380828437600081840152601f19601f82011690508083019250505050505050610f86565b905061058f610759565b73ffffffffffffffffffffffffffffffffffffffff168173ffffffffffffffffffffffffffffffffffffffff16146105fc576040517f08c379a00000000000000000000000000000000000000000000000000000000081526004016105f390611d8f565b60405180910390fd5b6000600560008881526020019081526020016000208054905090506020811061062857610627611e79565b5b60005b818110156106ee576000600560008a8152602001908152602001600020828154811061065a57610659611ea8565b5b906000526020600020015490506003818154811061067b5761067a611ea8565b5b906000526020600020906005020160040160009054906101000a900460ff161580156106cb575087600382815481106106b7576106b6611ea8565b5b906000526020600020906005020160000154145b156106da576106d982610ffb565b5b5080806106e690611f06565b91505061062b565b505050505050505050565b60007f0000000000000000000000000000000000000000000000000000000000000000905090565b7f000000000000000000000000000000000000000000000000000000000000000081565b61074d61136f565b61075760006113ed565b565b60008060009054906101000a900473ffffffffffffffffffffffffffffffffffffffff16905090565b600061078f8484846114b1565b90509392505050565b60006107a382611507565b9050919050565b60008083136107ee576040517f08c379a00000000000000000000000000000000000000000000000000000000081526004016107e590611f9b565b60405180910390fd5b60008413610831576040517f08c379a000000000000000000000000000000000000000000000000000000000815260040161082890612007565b60405180910390fd5b61083c84848461156b565b90509392505050565b60007f0000000000000000000000000000000000000000000000000000000000000000905090565b6000600954905090565b60008073ffffffffffffffffffffffffffffffffffffffff167f000000000000000000000000000000000000000000000000000000000000000073ffffffffffffffffffffffffffffffffffffffff161415610908576040517f08c379a00000000000000000000000000000000000000000000000000000000081526004016108ff90612073565b60405180910390fd5b428411801561091657508442115b610955576040517f08c379a000000000000000000000000000000000000000000000000000000000815260040161094c906120df565b60405180910390fd5b60008a8a8a8a8a8a8a60405160200161097497969594939291906120ff565b60405160208183030381529060405280519060200120905060007f000000000000000000000000000000000000000000000000000000000000000073ffffffffffffffffffffffffffffffffffffffff166338d52e0f6040518163ffffffff1660e01b8152600401602060405180830381865afa1580156109f9573d6000803e3d6000fd5b505050506040513d601f19601f82011682018060405250810190610a1d9190612195565b90506000610a2c8a8a8e61156b565b905060008113610a3f57610a3e611e79565b5b6000610a4c8d8c8c6114b1565b90508273ffffffffffffffffffffffffffffffffffffffff166323b872dd337f00000000000000000000000000000000000000000000000000000000000000008e6040518463ffffffff1660e01b8152600401610aab939291906121c2565b6020604051808303816000875af1158015610aca573d6000803e3d6000fd5b505050506040513d601f19601f82011682018060405250810190610aee9190612225565b508273ffffffffffffffffffffffffffffffffffffffff166323b872dd7f00000000000000000000000000000000000000000000000000000000000000007f00000000000000000000000000000000000000000000000000000000000000008e85610b599190612252565b6040518463ffffffff1660e01b8152600401610b77939291906121c2565b6020604051808303816000875af1158015610b96573d6000803e3d6000fd5b505050506040513d601f19601f82011682018060405250810190610bba9190612225565b508a600460008e81526020019081526020016000206000828254610bde9190612286565b9250508190555060036040518060c001604052808f81526020018d81526020018381526020018a81526020016000151581526020013373ffffffffffffffffffffffffffffffffffffffff1681525090806001815401808255809150506001900390600052602060002090600502016000909190919091506000820151816000015560208201518160010155604082015181600201556060820151816003015560808201518160040160006101000a81548160ff02191690831515021790555060a08201518160040160016101000a81548173ffffffffffffffffffffffffffffffffffffffff021916908373ffffffffffffffffffffffffffffffffffffffff1602179055505050600560008d8152602001908152602001600020600254908060018154018082558091505060019003906000526020600020016000909190919091505560026000815480929190610d3690611f06565b91905055508060086000828254610d4d9190612286565b925050819055508a81610d609190612252565b60096000828254610d719190612286565b925050819055503373ffffffffffffffffffffffffffffffffffffffff167f9997d8f7e802f5defb4f3812a5b671b8f48a9a075a28f887da7d839a28a4cda68e8d84604051610dc2939291906122eb565b60405180910390a26002549450505050509998505050505050505050565b610de861136f565b600073ffffffffffffffffffffffffffffffffffffffff168173ffffffffffffffffffffffffffffffffffffffff161415610e58576040517f08c379a0000000000000000000000000000000000000000000000000000000008152600401610e4f90612394565b60405180910390fd5b610e61816113ed565b50565b7f000000000000000000000000000000000000000000000000000000000000000081565b60008060008060008060038781548110610ea557610ea4611ea8565b5b90600052602060002090600502016040518060c0016040529081600082015481526020016001820154815260200160028201548152602001600382015481526020016004820160009054906101000a900460ff161515151581526020016004820160019054906101000a900473ffffffffffffffffffffffffffffffffffffffff1673ffffffffffffffffffffffffffffffffffffffff1673ffffffffffffffffffffffffffffffffffffffff1681525050905080602001518160400151826060015183608001518460a00151955095509550955095505091939590929450565b600080600080610f95856116c1565b80935081945082955050505060018684848460405160008152602001604052604051610fc494939291906123b4565b6020604051602081039080840390855afa158015610fe6573d6000803e3d6000fd5b50505060206040510351935050505092915050565b600015156003828154811061101357611012611ea8565b5b906000526020600020906005020160040160009054906101000a900460ff16151514611074576040517f08c379a000000000000000000000000000000000000000000000000000000000815260040161106b90612445565b60405180910390fd5b6003818154811061108857611087611ea8565b5b906000526020600020906005020160030154426110a59190612286565b600382815481106110b9576110b8611ea8565b5b9060005260206000209060050201600301541061110b576040517f08c379a0000000000000000000000000000000000000000000000000000000008152600401611102906124b1565b60405180910390fd5b60016003828154811061112157611120611ea8565b5b906000526020600020906005020160040160006101000a81548160ff0219169083151502179055506003818154811061115d5761115c611ea8565b5b906000526020600020906005020160020154600860008282546111809190612252565b925050819055507f000000000000000000000000000000000000000000000000000000000000000073ffffffffffffffffffffffffffffffffffffffff166323b872dd7f0000000000000000000000000000000000000000000000000000000000000000600384815481106111f8576111f7611ea8565b5b906000526020600020906005020160040160019054906101000a900473ffffffffffffffffffffffffffffffffffffffff166003858154811061123e5761123d611ea8565b5b9060005260206000209060050201600201546040518463ffffffff1660e01b815260040161126e939291906121c2565b6020604051808303816000875af115801561128d573d6000803e3d6000fd5b505050506040513d601f19601f820116820180604052508101906112b19190612225565b50600381815481106112c6576112c5611ea8565b5b906000526020600020906005020160040160019054906101000a900473ffffffffffffffffffffffffffffffffffffffff1673ffffffffffffffffffffffffffffffffffffffff167fad80bd5021987f3f1d52b69564356b8f3799fec3d3ef660c96023960568b2287826003848154811061134457611343611ea8565b5b9060005260206000209060050201600201546040516113649291906124d1565b60405180910390a250565b611377611704565b73ffffffffffffffffffffffffffffffffffffffff16611395610759565b73ffffffffffffffffffffffffffffffffffffffff16146113eb576040517f08c379a00000000000000000000000000000000000000000000000000000000081526004016113e290612546565b60405180910390fd5b565b60008060009054906101000a900473ffffffffffffffffffffffffffffffffffffffff169050816000806101000a81548173ffffffffffffffffffffffffffffffffffffffff021916908373ffffffffffffffffffffffffffffffffffffffff1602179055508173ffffffffffffffffffffffffffffffffffffffff168173ffffffffffffffffffffffffffffffffffffffff167f8be0079c531659141344cd1fd0a4f28419497f9722a3daafe3b4186f6b6457e060405160405180910390a35050565b60008082116114c3576114c2611e79565b5b600083116114d4576114d3611e79565b5b60006114e184848761156b565b9050620f424084826114f39190612566565b6114fd91906125ef565b9150509392505050565b60007f000000000000000000000000000000000000000000000000000000000000000060038367ffffffffffffffff168154811061154857611547611ea8565b5b9060005260206000209060050201600301546115649190612286565b9050919050565b600080831361157d5761157c611e79565b5b6000841361158e5761158d611e79565b5b60007f000000000000000000000000000000000000000000000000000000000000000073ffffffffffffffffffffffffffffffffffffffff166301e1d1146040518163ffffffff1660e01b8152600401602060405180830381865afa1580156115fb573d6000803e3d6000fd5b505050506040513d601f19601f8201168201806040525081019061161f9190612635565b905060008114156116345760009150506116ba565b80600760008581526020019081526020016000205411156116595760009150506116ba565b6007600084815260200190815260200160002054816116789190612662565b90506103e8816103e88761168c91906126f6565b611696919061280d565b856116a191906126f6565b6116ab919061280d565b846116b69190612662565b9150505b9392505050565b600080600060418451146116d457600080fd5b60008060006020870151925060408701519150606087015160001a90508083839550955095505050509193909250565b600033905090565b600080fd5b600080fd5b6000819050919050565b61172981611716565b811461173457600080fd5b50565b60008135905061174681611720565b92915050565b6000602082840312156117625761176161170c565b5b600061177084828501611737565b91505092915050565b6000819050919050565b61178c81611779565b82525050565b60006020820190506117a76000830184611783565b92915050565b6117b681611779565b81146117c157600080fd5b50565b6000813590506117d3816117ad565b92915050565b6000602082840312156117ef576117ee61170c565b5b60006117fd848285016117c4565b91505092915050565b60008115159050919050565b61181b81611806565b82525050565b600073ffffffffffffffffffffffffffffffffffffffff82169050919050565b600061184c82611821565b9050919050565b61185c81611841565b82525050565b600060a0820190506118776000830188611783565b6118846020830187611783565b6118916040830186611783565b61189e6060830185611812565b6118ab6080830184611853565b9695505050505050565b600080fd5b600080fd5b600080fd5b60008083601f8401126118da576118d96118b5565b5b8235905067ffffffffffffffff8111156118f7576118f66118ba565b5b602083019150836001820283011115611913576119126118bf565b5b9250929050565b6000806000604084860312156119335761193261170c565b5b6000611941868287016117c4565b935050602084013567ffffffffffffffff81111561196257611961611711565b5b61196e868287016118c4565b92509250509250925092565b6000806000806000608086880312156119965761199561170c565b5b60006119a488828901611737565b95505060206119b588828901611737565b94505060406119c688828901611737565b935050606086013567ffffffffffffffff8111156119e7576119e6611711565b5b6119f3888289016118c4565b92509250509295509295909350565b6000602082019050611a176000830184611853565b92915050565b600080600060608486031215611a3657611a3561170c565b5b6000611a4486828701611737565b9350506020611a55868287016117c4565b9250506040611a66868287016117c4565b9150509250925092565b600067ffffffffffffffff82169050919050565b611a8d81611a70565b8114611a9857600080fd5b50565b600081359050611aaa81611a84565b92915050565b600060208284031215611ac657611ac561170c565b5b6000611ad484828501611a9b565b91505092915050565b6000819050919050565b611af081611add565b8114611afb57600080fd5b50565b600081359050611b0d81611ae7565b92915050565b600080600060608486031215611b2c57611b2b61170c565b5b6000611b3a86828701611afe565b9350506020611b4b86828701611afe565b9250506040611b5c86828701611737565b9150509250925092565b611b6f81611add565b82525050565b6000602082019050611b8a6000830184611b66565b92915050565b600060ff82169050919050565b611ba681611b90565b82525050565b6000602082019050611bc16000830184611b9d565b92915050565b60008060008060008060008060006101008a8c031215611bea57611be961170c565b5b6000611bf88c828d01611737565b9950506020611c098c828d01611737565b9850506040611c1a8c828d01611737565b9750506060611c2b8c828d016117c4565b9650506080611c3c8c828d016117c4565b95505060a0611c4d8c828d016117c4565b94505060c0611c5e8c828d016117c4565b93505060e08a013567ffffffffffffffff811115611c7f57611c7e611711565b5b611c8b8c828d016118c4565b92509250509295985092959850929598565b611ca681611841565b8114611cb157600080fd5b50565b600081359050611cc381611c9d565b92915050565b600060208284031215611cdf57611cde61170c565b5b6000611ced84828501611cb4565b91505092915050565b6000819050919050565b611d11611d0c82611779565b611cf6565b82525050565b6000611d238284611d00565b60208201915081905092915050565b600082825260208201905092915050565b7f496e76616c6964207369676e6174757265000000000000000000000000000000600082015250565b6000611d79601183611d32565b9150611d8482611d43565b602082019050919050565b60006020820190508181036000830152611da881611d6c565b9050919050565b7f496e76616c696420494400000000000000000000000000000000000000000000600082015250565b6000611de5600a83611d32565b9150611df082611daf565b602082019050919050565b60006020820190508181036000830152611e1481611dd8565b9050919050565b6000819050919050565b611e36611e3182611716565b611e1b565b82525050565b6000611e488286611e25565b602082019150611e588285611e25565b602082019150611e688284611e25565b602082019150819050949350505050565b7f4e487b7100000000000000000000000000000000000000000000000000000000600052600160045260246000fd5b7f4e487b7100000000000000000000000000000000000000000000000000000000600052603260045260246000fd5b7f4e487b7100000000000000000000000000000000000000000000000000000000600052601160045260246000fd5b6000611f1182611779565b91507fffffffffffffffffffffffffffffffffffffffffffffffffffffffffffffffff821415611f4457611f43611ed7565b5b600182019050919050565b7f6765744f6464733a20496e76616c6964206f6464730000000000000000000000600082015250565b6000611f85601583611d32565b9150611f9082611f4f565b602082019050919050565b60006020820190508181036000830152611fb481611f78565b9050919050565b7f6765744f6464733a20496e76616c696420776167657200000000000000000000600082015250565b6000611ff1601683611d32565b9150611ffc82611fbb565b602082019050919050565b6000602082019050818103600083015261202081611fe4565b9050919050565b7f5661756c742061646472657373206e6f74207365740000000000000000000000600082015250565b600061205d601583611d32565b915061206882612027565b602082019050919050565b6000602082019050818103600083015261208c81612050565b9050919050565b7f496e76616c696420646174650000000000000000000000000000000000000000600082015250565b60006120c9600c83611d32565b91506120d482612093565b602082019050919050565b600060208201905081810360008301526120f8816120bc565b9050919050565b600061210b828a611e25565b60208201915061211b8289611e25565b60208201915061212b8288611e25565b60208201915061213b8287611d00565b60208201915061214b8286611d00565b60208201915061215b8285611d00565b60208201915061216b8284611d00565b60208201915081905098975050505050505050565b60008151905061218f81611c9d565b92915050565b6000602082840312156121ab576121aa61170c565b5b60006121b984828501612180565b91505092915050565b60006060820190506121d76000830186611853565b6121e46020830185611853565b6121f16040830184611783565b949350505050565b61220281611806565b811461220d57600080fd5b50565b60008151905061221f816121f9565b92915050565b60006020828403121561223b5761223a61170c565b5b600061224984828501612210565b91505092915050565b600061225d82611779565b915061226883611779565b92508282101561227b5761227a611ed7565b5b828203905092915050565b600061229182611779565b915061229c83611779565b9250827fffffffffffffffffffffffffffffffffffffffffffffffffffffffffffffffff038211156122d1576122d0611ed7565b5b828201905092915050565b6122e581611716565b82525050565b600060608201905061230060008301866122dc565b61230d6020830185611783565b61231a6040830184611783565b949350505050565b7f4f776e61626c653a206e6577206f776e657220697320746865207a65726f206160008201527f6464726573730000000000000000000000000000000000000000000000000000602082015250565b600061237e602683611d32565b915061238982612322565b604082019050919050565b600060208201905081810360008301526123ad81612371565b9050919050565b60006080820190506123c960008301876122dc565b6123d66020830186611b9d565b6123e360408301856122dc565b6123f060608301846122dc565b95945050505050565b7f4265742068617320616c7265616479206265656e20736574746c656400000000600082015250565b600061242f601c83611d32565b915061243a826123f9565b602082019050919050565b6000602082019050818103600083015261245e81612422565b9050919050565b7f4d61726b6574206e6f7420636c6f736564000000000000000000000000000000600082015250565b600061249b601183611d32565b91506124a682612465565b602082019050919050565b600060208201905081810360008301526124ca8161248e565b9050919050565b60006040820190506124e66000830185611783565b6124f36020830184611783565b9392505050565b7f4f776e61626c653a2063616c6c6572206973206e6f7420746865206f776e6572600082015250565b6000612530602083611d32565b915061253b826124fa565b602082019050919050565b6000602082019050818103600083015261255f81612523565b9050919050565b600061257182611779565b915061257c83611779565b9250817fffffffffffffffffffffffffffffffffffffffffffffffffffffffffffffffff04831182151516156125b5576125b4611ed7565b5b828202905092915050565b7f4e487b7100000000000000000000000000000000000000000000000000000000600052601260045260246000fd5b60006125fa82611779565b915061260583611779565b925082612615576126146125c0565b5b828204905092915050565b60008151905061262f816117ad565b92915050565b60006020828403121561264b5761264a61170c565b5b600061265984828501612620565b91505092915050565b600061266d82611add565b915061267883611add565b9250827f8000000000000000000000000000000000000000000000000000000000000000018212600084121516156126b3576126b2611ed7565b5b827f7fffffffffffffffffffffffffffffffffffffffffffffffffffffffffffffff0182136000841216156126eb576126ea611ed7565b5b828203905092915050565b600061270182611add565b915061270c83611add565b9250827f7fffffffffffffffffffffffffffffffffffffffffffffffffffffffffffffff048211600084136000841316161561274b5761274a611ed7565b5b817f8000000000000000000000000000000000000000000000000000000000000000058312600084126000841316161561278857612787611ed7565b5b827f800000000000000000000000000000000000000000000000000000000000000005821260008413600084121616156127c5576127c4611ed7565b5b827f7fffffffffffffffffffffffffffffffffffffffffffffffffffffffffffffff058212600084126000841216161561280257612801611ed7565b5b828202905092915050565b600061281882611add565b915061282383611add565b925082612833576128326125c0565b5b600160000383147f80000000000000000000000000000000000000000000000000000000000000008314161561286c5761286b611ed7565b5b82820590509291505056fea2646970667358221220ed7d3bd223f20dfa199333e40b04bc45182db1043023dcdbb72bf1f248e2ea1a64736f6c634300080a0033",
  "immutableReferences": {
    "2656": [
      {
        "length": 32,
        "start": 2121
      }
    ],
    "2658": [
      {
        "length": 32,
        "start": 1789
      },
      {
        "length": 32,
        "start": 2194
      },
      {
        "length": 32,
        "start": 2448
      },
      {
        "length": 32,
        "start": 2829
      },
      {
        "length": 32,
        "start": 4489
      },
      {
        "length": 32,
        "start": 5522
      }
    ],
    "2660": [
      {
        "length": 32,
        "start": 2669
      },
      {
        "length": 32,
        "start": 2862
      },
      {
        "length": 32,
        "start": 4549
      }
    ],
    "2691": [
      {
        "length": 32,
        "start": 1827
      },
      {
        "length": 32,
        "start": 5387
      }
    ],
    "2693": [
      {
        "length": 32,
        "start": 3686
      }
    ]
  },
  "source": "// SPDX-License-Identifier: MIT\npragma solidity =0.8.10;\n\nimport \"@openzeppelin/contracts/access/Ownable.sol\";\nimport \"@openzeppelin/contracts/token/ERC20/IERC20.sol\";\nimport \"@openzeppelin/contracts/token/ERC721/IERC721.sol\";\n\nimport { IBet } from \"./IBet.sol\";\nimport \"./IVault.sol\";\nimport \"./IMarket.sol\";\n\n// Put these in the ERC721 contract\nstruct Bet {\n    bytes32 propositionId;\n    uint256 amount;\n    uint256 payout;\n    uint256 payoutDate;\n    bool settled;\n    address owner;\n}\n\ncontract Market is Ownable, IMarket {\n\n    uint256 private constant MAX = 32;\n    int256 private constant PRECESSION = 1_000;\n\n    IERC721 private _bet;\n    uint8 private immutable _fee;\n    address private immutable _vault;\n    address private immutable _self;\n\n    uint256 private _count; // running count of bets\n\n    Bet[] private _bets;\n\n    // MarketID => amount bet\n    mapping(bytes32 => uint256) private _marketTotal;\n\n    // MarketID => Bets Indexes\n    mapping(bytes32 => uint256[]) private _marketBets;\n\n    // MarketID => PropositionID => amount bet\n    mapping(bytes32 => mapping(uint16 => uint256)) private _marketBetAmount;\n\n    // PropositionID => amount bet\n    mapping(bytes32 => uint256) private _potentialPayout;\n\n    uint256 private _totalInPlay;\n    uint256 private _totalLiability;\n\n    // Can claim after this period regardless\n    uint256 public immutable timeout;\n    uint256 public immutable min;\n\n    function getTarget() external view returns (uint8) {\n        return _fee;\n    }\n\n    function getTotalInplay() external view returns (uint256) {\n        return _totalInPlay;\n    }\n\n    function getTotalLiability() external view returns (uint256) {\n        return _totalLiability;\n    }\n\n    function getVaultAddress() external view returns (address) {\n        return _vault;\n    }\n\n    function getExpiry(uint64 id) external view returns (uint256) {\n        return _getExpiry(id);\n    }\n\n    function getMarketTotal(bytes32 marketId) external view returns (uint256) {\n        return _marketTotal[marketId];\n    }\n\n    function _getExpiry(uint64 id) private view returns (uint256) {\n        return _bets[id].payoutDate + timeout;\n    }\n\n    constructor(address vault, uint8 fee) {\n        require(vault != address(0), \"Invalid address\");\n        _self = address(this);\n        _vault = vault;\n        // _bet = IERC721(erc721);\n        _fee = fee;\n        \n        timeout = 30 days;\n        min = 1 hours;\n    }\n\n    // function getBetById(bytes32 id) external view returns (uint256, uint256, uint256, bool, address) {\n    //     uint64 index = _betsIndexes[id];\n    //     return _getBet(index);\n    // }\n\n    function getBetByIndex(uint256 index) external view returns (uint256, uint256, uint256, bool, address) {\n        return _getBet(index);\n    }\n\n    function _getBet(uint256 index) private view returns (uint256, uint256, uint256, bool, address) {\n        // bytes32 index = _betsIndexes[id];\n        Bet memory bet = _bets[index];\n        return (bet.amount, bet.payout, bet.payoutDate, bet.settled, bet.owner);\n    }\n\n    // function getBetById(bytes32 id) external view returns (uint256, uint256, uint256, bool, address) {\n    //     // bytes32 index = _betsIndexes[id];\n    //     // Bet memory bet = _bets[id];\n    //     // return (bet.amount, bet.payout, bet.payoutDate, bet.claimed, bet.owner);\n    //     return 0;\n    // }\n\n    function getOdds(int256 wager, int256 odds, bytes32 propositionId) external view returns (int256) {\n        require(odds > 0, \"getOdds: Invalid odds\");\n        require(wager > 0, \"getOdds: Invalid wager\");\n        \n        return _getOdds(wager, odds, propositionId);\n    }\n    \n    function _getOdds(int256 wager, int256 odds, bytes32 propositionId) private view returns (int256) {\n        assert(odds > 0);\n        assert(wager > 0);\n        int256 p = int256(IVault(_vault).totalAssets());\n\n        if (p == 0) {\n            return 0;\n        }\n\n        // f(wager) = odds - odds*(wager/pool) \n\n        if (_potentialPayout[propositionId] > uint256(p)) {\n            return 0;\n        }\n\n        // do not include this guy in the return\n        p -= int256(_potentialPayout[propositionId]);\n\n        return odds - (odds * (wager * PRECESSION / p) / PRECESSION);\n    }\n\n    function getPotentialPayout(bytes32 propositionId, uint256 wager, uint256 odds) external view returns (uint256) {\n        return _getPayout(propositionId, wager, odds);\n    }\n\n    function _getPayout(bytes32 propositionId, uint256 wager, uint256 odds) private view returns (uint256) {\n        assert(odds > 0);\n        assert(wager > 0);\n        \n        // add underlying to the market\n        int256 trueOdds = _getOdds(int256(wager), int256(odds), propositionId);\n        // assert(trueOdds > 0);\n\n        return uint256(trueOdds) * wager / 1_000_000;\n    }\n\n    function back(bytes32 nonce, bytes32 propositionId, bytes32 marketId, uint256 wager, uint256 odds, uint256 close, uint256 end, bytes calldata signature) external returns (uint256) {\n        require(_vault != address(0), \"Vault address not set\");\n        require(end > block.timestamp && block.timestamp > close, \"Invalid date\");\n        \n        bytes32 messageHash = keccak256(abi.encodePacked(nonce, propositionId, marketId, wager, odds, close, end));\n        // bytes32 ethSignedMessageHash = getEthSignedMessageHash(messageHash);\n\n        // require(recoverSigner(ethSignedMessageHash, signature) == owner(), \"Invalid signature\");\n        address underlying = IVault(_vault).asset();\n\n        // add underlying to the market\n        int256 trueOdds = _getOdds(int256(wager), int256(odds), propositionId);\n        assert(trueOdds > 0);\n\n        uint256 payout = _getPayout(propositionId, wager, odds);\n\n        // escrow\n        IERC20(underlying).transferFrom(msg.sender, _self, wager);\n        IERC20(underlying).transferFrom(_vault, _self, (payout - wager));\n\n        // assert(IERC20(underlying).balanceOf(_self) >= payout);\n\n        // add to the market\n        _marketTotal[marketId] += wager;\n\n        _bets.push(Bet(propositionId, wager, payout, end, false, msg.sender));\n        _marketBets[marketId].push(_count);\n        _count++;\n\n        // Mint the 721\n        // uint256 tokenId = IBet(_bet).mint(msg.sender);\n\n        _totalInPlay += payout;\n        _totalLiability += (payout - wager);\n\n        emit Placed(propositionId, wager, payout, msg.sender);\n\n        return _count; // token ID\n    }\n\n    function settle(uint256 id, bytes calldata signature) external {\n        bytes32 message = keccak256(abi.encodePacked(id));\n        address marketOwner = recoverSigner(message, signature);\n        require(marketOwner == owner(), \"Invalid signature\");\n\n        _settle(id);\n    }\n\n    function settleMarket(bytes32 nonce, bytes32 marketId, bytes32 propositionId, bytes calldata signature) public {\n        require(marketId != 0 && propositionId != 0, \"Invalid ID\");\n\n        bytes32 message = keccak256(abi.encodePacked(nonce, propositionId, marketId));\n        address marketOwner = recoverSigner(message, signature);\n        require(marketOwner == owner(), \"Invalid signature\");\n        \n        uint256 count = _marketBets[marketId].length;\n        assert(count < MAX);\n        for (uint256 i = 0; i < count; i++) {\n            uint256 index = _marketBets[marketId][i];\n\n            if (!_bets[index].settled && _bets[index].propositionId == propositionId) {\n                _settle(i);\n            }\n        }\n    }\n\n    // function claim(bytes32 id, bytes calldata signature) external {\n    //     bytes32 message = keccak256(abi.encodePacked(id));\n    //     address marketOwner = recoverSigner(message, signature);\n    //     require(marketOwner == owner(), \"Invalid signature\");\n\n    //     require(_bets[id].claimed == false, \"Bet has already been claimed\");\n    //     require(_bets[id].payoutDate < block.timestamp + _bets[id].payoutDate, \"Market not closed\");\n\n    //     _bets[id].claimed = true;\n    //     _totalInPlay -= _bets[id].amount;\n\n    //     IERC20(_vault).transferFrom(_self, _bets[id].owner, _bets[id].payout);\n\n    //     emit Claimed(id, _bets[id].payout, _bets[id].owner);\n    // }\n\n    function _settle(uint256 id) private {\n        require(_bets[id].settled == false, \"Bet has already been settled\");\n        require(_bets[id].payoutDate < block.timestamp + _bets[id].payoutDate, \"Market not closed\");\n\n        _bets[id].settled = true;\n        _totalInPlay -= _bets[id].payout;\n\n        IERC20(_vault).transferFrom(_self, _bets[id].owner, _bets[id].payout);\n\n        emit Settled(id, _bets[id].payout, _bets[id].owner);\n    }\n\n    function getEthSignedMessageHash(bytes32 messageHash)\n        internal\n        pure\n        returns (bytes32)\n    {\n        /*\n        Signature is produced by signing a keccak256 hash with the following format:\n        \"\\x19Ethereum Signed Message\\n\" + len(msg) + msg\n        */\n        return keccak256(abi.encodePacked(\"\\x19Ethereum Signed Message:\\n32\", messageHash));\n    }\n\n    function recoverSigner(bytes32 message, bytes memory signature)\n        private\n        pure\n        returns (address)\n    {\n        uint8 v;\n        bytes32 r;\n        bytes32 s;\n\n        (v, r, s) = splitSignature(signature);\n\n        return ecrecover(message, v, r, s);\n    }\n\n    function splitSignature(bytes memory signature)\n        private\n        pure\n        returns (uint8, bytes32, bytes32)\n    {\n        require(signature.length == 65);\n\n        bytes32 r;\n        bytes32 s;\n        uint8 v;\n\n        assembly {\n            // first 32 bytes, after the length prefix\n            r := mload(add(signature, 32))\n            // second 32 bytes\n            s := mload(add(signature, 64))\n            // final byte (first byte of the next 32 bytes)\n            v := byte(0, mload(add(signature, 96)))\n        }\n\n        return (v, r, s);\n    }\n\n    event Placed(bytes32 propositionId, uint256 amount, uint256 payout, address indexed owner);\n    event Settled(uint256 id, uint256 payout, address indexed owner);\n}",
  "sourcePath": "/home/lucascullen/GitHub/horse-link/horse.link/contracts/Market.sol",
  "compiler": {
    "name": "solc",
    "version": "0.8.10+commit.fc410830.Emscripten.clang"
  },
  "schemaVersion": "3.4.10",
  "updatedAt": "2022-10-09T00:55:38.661Z",
  "devdoc": {
    "kind": "dev",
    "methods": {
      "owner()": {
        "details": "Returns the address of the current owner."
      },
      "renounceOwnership()": {
        "details": "Leaves the contract without owner. It will not be possible to call `onlyOwner` functions anymore. Can only be called by the current owner. NOTE: Renouncing ownership will leave the contract without an owner, thereby removing any functionality that is only available to the owner."
      },
      "transferOwnership(address)": {
        "details": "Transfers ownership of the contract to a new account (`newOwner`). Can only be called by the current owner."
      }
    },
    "version": 1
  },
  "userdoc": {
    "kind": "user",
    "methods": {},
    "version": 1
  }
}