{
  "contractName": "Market",
  "abi": [
    {
      "inputs": [
        {
          "internalType": "address",
          "name": "vault",
          "type": "address"
        },
        {
          "internalType": "uint8",
          "name": "fee",
          "type": "uint8"
        },
        {
          "internalType": "address",
          "name": "oracle",
          "type": "address"
        }
      ],
      "stateMutability": "nonpayable",
      "type": "constructor"
    },
    {
      "anonymous": false,
      "inputs": [
        {
          "indexed": true,
          "internalType": "address",
          "name": "worker",
          "type": "address"
        },
        {
          "indexed": false,
          "internalType": "uint256",
          "name": "amount",
          "type": "uint256"
        }
      ],
      "name": "Claimed",
      "type": "event"
    },
    {
      "anonymous": false,
      "inputs": [
        {
          "indexed": true,
          "internalType": "address",
          "name": "previousOwner",
          "type": "address"
        },
        {
          "indexed": true,
          "internalType": "address",
          "name": "newOwner",
          "type": "address"
        }
      ],
      "name": "OwnershipTransferred",
      "type": "event"
    },
    {
      "anonymous": false,
      "inputs": [
        {
          "indexed": false,
          "internalType": "uint256",
          "name": "index",
          "type": "uint256"
        },
        {
          "indexed": false,
          "internalType": "bytes32",
          "name": "propositionId",
          "type": "bytes32"
        },
        {
          "indexed": false,
          "internalType": "bytes32",
          "name": "marketId",
          "type": "bytes32"
        },
        {
          "indexed": false,
          "internalType": "uint256",
          "name": "amount",
          "type": "uint256"
        },
        {
          "indexed": false,
          "internalType": "uint256",
          "name": "payout",
          "type": "uint256"
        },
        {
          "indexed": true,
          "internalType": "address",
          "name": "owner",
          "type": "address"
        }
      ],
      "name": "Placed",
      "type": "event"
    },
    {
      "anonymous": false,
      "inputs": [
        {
          "indexed": false,
          "internalType": "uint256",
          "name": "id",
          "type": "uint256"
        },
        {
          "indexed": false,
          "internalType": "uint256",
          "name": "payout",
          "type": "uint256"
        },
        {
          "indexed": false,
          "internalType": "bool",
          "name": "result",
          "type": "bool"
        },
        {
          "indexed": true,
          "internalType": "address",
          "name": "owner",
          "type": "address"
        }
      ],
      "name": "Settled",
      "type": "event"
    },
    {
      "inputs": [],
      "name": "min",
      "outputs": [
        {
          "internalType": "uint256",
          "name": "",
          "type": "uint256"
        }
      ],
      "stateMutability": "view",
      "type": "function"
    },
    {
      "inputs": [],
      "name": "owner",
      "outputs": [
        {
          "internalType": "address",
          "name": "",
          "type": "address"
        }
      ],
      "stateMutability": "view",
      "type": "function"
    },
    {
      "inputs": [],
      "name": "renounceOwnership",
      "outputs": [],
      "stateMutability": "nonpayable",
      "type": "function"
    },
    {
      "inputs": [],
      "name": "timeout",
      "outputs": [
        {
          "internalType": "uint256",
          "name": "",
          "type": "uint256"
        }
      ],
      "stateMutability": "view",
      "type": "function"
    },
    {
      "inputs": [
        {
          "internalType": "address",
          "name": "newOwner",
          "type": "address"
        }
      ],
      "name": "transferOwnership",
      "outputs": [],
      "stateMutability": "nonpayable",
      "type": "function"
    },
    {
      "inputs": [],
      "name": "getFee",
      "outputs": [
        {
          "internalType": "uint8",
          "name": "",
          "type": "uint8"
        }
      ],
      "stateMutability": "view",
      "type": "function"
    },
    {
      "inputs": [],
      "name": "getTotalInPlay",
      "outputs": [
        {
          "internalType": "uint256",
          "name": "",
          "type": "uint256"
        }
      ],
      "stateMutability": "view",
      "type": "function"
    },
    {
      "inputs": [],
      "name": "getInPlayCount",
      "outputs": [
        {
          "internalType": "uint256",
          "name": "",
          "type": "uint256"
        }
      ],
      "stateMutability": "view",
      "type": "function"
    },
    {
      "inputs": [],
      "name": "_getCount",
      "outputs": [
        {
          "internalType": "uint256",
          "name": "",
          "type": "uint256"
        }
      ],
      "stateMutability": "view",
      "type": "function"
    },
    {
      "inputs": [],
      "name": "getTotalExposure",
      "outputs": [
        {
          "internalType": "uint256",
          "name": "",
          "type": "uint256"
        }
      ],
      "stateMutability": "view",
      "type": "function"
    },
    {
      "inputs": [],
      "name": "getOracleAddress",
      "outputs": [
        {
          "internalType": "address",
          "name": "",
          "type": "address"
        }
      ],
      "stateMutability": "view",
      "type": "function"
    },
    {
      "inputs": [],
      "name": "getVaultAddress",
      "outputs": [
        {
          "internalType": "address",
          "name": "",
          "type": "address"
        }
      ],
      "stateMutability": "view",
      "type": "function"
    },
    {
      "inputs": [
        {
          "internalType": "uint64",
          "name": "id",
          "type": "uint64"
        }
      ],
      "name": "getExpiry",
      "outputs": [
        {
          "internalType": "uint256",
          "name": "",
          "type": "uint256"
        }
      ],
      "stateMutability": "view",
      "type": "function"
    },
    {
      "inputs": [
        {
          "internalType": "bytes32",
          "name": "marketId",
          "type": "bytes32"
        }
      ],
      "name": "getMarketTotal",
      "outputs": [
        {
          "internalType": "uint256",
          "name": "",
          "type": "uint256"
        }
      ],
      "stateMutability": "view",
      "type": "function"
    },
    {
      "inputs": [
        {
          "internalType": "uint256",
          "name": "index",
          "type": "uint256"
        }
      ],
      "name": "getBetByIndex",
      "outputs": [
        {
          "internalType": "uint256",
          "name": "",
          "type": "uint256"
        },
        {
          "internalType": "uint256",
          "name": "",
          "type": "uint256"
        },
        {
          "internalType": "uint256",
          "name": "",
          "type": "uint256"
        },
        {
          "internalType": "bool",
          "name": "",
          "type": "bool"
        },
        {
          "internalType": "address",
          "name": "",
          "type": "address"
        }
      ],
      "stateMutability": "view",
      "type": "function"
    },
    {
      "inputs": [
        {
          "internalType": "int256",
          "name": "wager",
          "type": "int256"
        },
        {
          "internalType": "int256",
          "name": "odds",
          "type": "int256"
        },
        {
          "internalType": "bytes32",
          "name": "propositionId",
          "type": "bytes32"
        }
      ],
      "name": "getOdds",
      "outputs": [
        {
          "internalType": "int256",
          "name": "",
          "type": "int256"
        }
      ],
      "stateMutability": "view",
      "type": "function"
    },
    {
      "inputs": [
        {
          "internalType": "bytes32",
          "name": "propositionId",
          "type": "bytes32"
        },
        {
          "internalType": "uint256",
          "name": "wager",
          "type": "uint256"
        },
        {
          "internalType": "uint256",
          "name": "odds",
          "type": "uint256"
        }
      ],
      "name": "getPotentialPayout",
      "outputs": [
        {
          "internalType": "uint256",
          "name": "",
          "type": "uint256"
        }
      ],
      "stateMutability": "view",
      "type": "function"
    },
    {
      "inputs": [
        {
          "internalType": "bytes32",
          "name": "nonce",
          "type": "bytes32"
        },
        {
          "internalType": "bytes32",
          "name": "propositionId",
          "type": "bytes32"
        },
        {
          "internalType": "bytes32",
          "name": "marketId",
          "type": "bytes32"
        },
        {
          "internalType": "uint256",
          "name": "wager",
          "type": "uint256"
        },
        {
          "internalType": "uint256",
          "name": "odds",
          "type": "uint256"
        },
        {
          "internalType": "uint256",
          "name": "close",
          "type": "uint256"
        },
        {
          "internalType": "uint256",
          "name": "end",
          "type": "uint256"
        },
        {
          "internalType": "bytes",
          "name": "signature",
          "type": "bytes"
        }
      ],
      "name": "back",
      "outputs": [
        {
          "internalType": "uint256",
          "name": "",
          "type": "uint256"
        }
      ],
      "stateMutability": "nonpayable",
      "type": "function"
    },
    {
      "inputs": [],
      "name": "claim",
      "outputs": [],
      "stateMutability": "nonpayable",
      "type": "function"
    },
    {
      "inputs": [
        {
          "internalType": "uint256",
          "name": "index",
          "type": "uint256"
        },
        {
          "internalType": "bool",
          "name": "result",
          "type": "bool"
        },
        {
          "internalType": "bytes",
          "name": "signature",
          "type": "bytes"
        }
      ],
      "name": "settle",
      "outputs": [],
      "stateMutability": "nonpayable",
      "type": "function"
    },
    {
      "inputs": [
        {
          "internalType": "bytes32",
          "name": "propositionId",
          "type": "bytes32"
        },
        {
          "internalType": "uint256",
          "name": "from",
          "type": "uint256"
        },
        {
          "internalType": "uint256",
          "name": "to",
          "type": "uint256"
        },
        {
          "internalType": "bytes32",
          "name": "marketId",
          "type": "bytes32"
        },
        {
          "internalType": "bytes",
          "name": "signature",
          "type": "bytes"
        }
      ],
      "name": "settleMarket",
      "outputs": [],
      "stateMutability": "nonpayable",
      "type": "function"
    }
  ],
  "bytecode": "0x6101606040523480156200001257600080fd5b5060405162002f8a38038062002f8a833981810160405281019062000038919062000319565b620000586200004c620001a560201b60201c565b620001ad60201b60201c565b600073ffffffffffffffffffffffffffffffffffffffff168373ffffffffffffffffffffffffffffffffffffffff161415620000cb576040517f08c379a0000000000000000000000000000000000000000000000000000000008152600401620000c290620003d6565b60405180910390fd5b3073ffffffffffffffffffffffffffffffffffffffff1660e08173ffffffffffffffffffffffffffffffffffffffff16815250508273ffffffffffffffffffffffffffffffffffffffff1660c08173ffffffffffffffffffffffffffffffffffffffff16815250508160ff1660808160ff1681525050600a60ff1660a08160ff16815250508073ffffffffffffffffffffffffffffffffffffffff166101008173ffffffffffffffffffffffffffffffffffffffff168152505062278d006101208181525050610e106101408181525050505050620003f8565b600033905090565b60008060009054906101000a900473ffffffffffffffffffffffffffffffffffffffff169050816000806101000a81548173ffffffffffffffffffffffffffffffffffffffff021916908373ffffffffffffffffffffffffffffffffffffffff1602179055508173ffffffffffffffffffffffffffffffffffffffff168173ffffffffffffffffffffffffffffffffffffffff167f8be0079c531659141344cd1fd0a4f28419497f9722a3daafe3b4186f6b6457e060405160405180910390a35050565b600080fd5b600073ffffffffffffffffffffffffffffffffffffffff82169050919050565b6000620002a38262000276565b9050919050565b620002b58162000296565b8114620002c157600080fd5b50565b600081519050620002d581620002aa565b92915050565b600060ff82169050919050565b620002f381620002db565b8114620002ff57600080fd5b50565b6000815190506200031381620002e8565b92915050565b60008060006060848603121562000335576200033462000271565b5b60006200034586828701620002c4565b9350506020620003588682870162000302565b92505060406200036b86828701620002c4565b9150509250925092565b600082825260208201905092915050565b7f496e76616c696420616464726573730000000000000000000000000000000000600082015250565b6000620003be600f8362000375565b9150620003cb8262000386565b602082019050919050565b60006020820190508181036000830152620003f181620003af565b9050919050565b60805160a05160c05160e051610100516101205161014051612b02620004886000396000610f990152600081816106a601526117df015260006108e9015260008181610bb00152610c710152600081816105120152818161068001528181610af301528181610c500152818161145801528181611609015261184401526000505060006109310152612b026000f3fe608060405234801561001057600080fd5b50600436106101375760003560e01c80639374d51f116100b8578063ddf443de1161007c578063ddf443de1461030e578063e4650fac1461032a578063e8ee7b9b1461035a578063f20c95961461038a578063f2fde38b146103ba578063f8897945146103d657610137565b80639374d51f14610268578063b18b78dd14610284578063bf611788146102a2578063c96121a8146102d2578063ced72f87146102f057610137565b806365cacaa4116100ff57806365cacaa4146101e657806370dea79a14610204578063715018a6146102225780638ac6d2171461022c5780638da5cb5b1461024a57610137565b8063064c77021461013c578063129c45fc1461016c5780632630be16146101a05780634e71d92d146101be57806358439479146101c8575b600080fd5b610156600480360381019061015191906119fe565b6103f4565b6040516101639190611a44565b60405180910390f35b61018660048036038101906101819190611a8b565b610411565b604051610197959493929190611b14565b60405180910390f35b6101a8610435565b6040516101b59190611a44565b60405180910390f35b6101c6610442565b005b6101d0610672565b6040516101dd9190611a44565b60405180910390f35b6101ee61067c565b6040516101fb9190611b67565b60405180910390f35b61020c6106a4565b6040516102199190611a44565b60405180910390f35b61022a6106c8565b005b6102346106dc565b6040516102419190611a44565b60405180910390f35b6102526106e6565b60405161025f9190611b67565b60405180910390f35b610282600480360381019061027d9190611be7565b61070f565b005b61028c6108e5565b6040516102999190611b67565b60405180910390f35b6102bc60048036038101906102b79190611c81565b61090d565b6040516102c99190611a44565b60405180910390f35b6102da610923565b6040516102e79190611a44565b60405180910390f35b6102f861092d565b6040516103059190611cf0565b60405180910390f35b61032860048036038101906103239190611d37565b610955565b005b610344600480360381019061033f9190611deb565b610a5b565b6040516103519190611a44565b60405180910390f35b610374600480360381019061036f9190611e4e565b610a6d565b6040516103819190611eb0565b60405180910390f35b6103a4600480360381019061039f9190611ecb565b610aa0565b6040516103b19190611a44565b60405180910390f35b6103d460048036038101906103cf9190611fcd565b610f13565b005b6103de610f97565b6040516103eb9190611a44565b60405180910390f35b600060046000838152602001908152602001600020549050919050565b600080600080600061042286610fbb565b9450945094509450945091939590929450565b6000600280549050905090565b6000600960003373ffffffffffffffffffffffffffffffffffffffff1673ffffffffffffffffffffffffffffffffffffffff168152602001908152602001600020549050600081116104c9576040517f08c379a00000000000000000000000000000000000000000000000000000000081526004016104c090612057565b60405180910390fd5b6000600960003373ffffffffffffffffffffffffffffffffffffffff1673ffffffffffffffffffffffffffffffffffffffff1681526020019081526020016000208190555060007f000000000000000000000000000000000000000000000000000000000000000073ffffffffffffffffffffffffffffffffffffffff166338d52e0f6040518163ffffffff1660e01b8152600401602060405180830381865afa15801561057b573d6000803e3d6000fd5b505050506040513d601f19601f8201168201806040525081019061059f919061208c565b90508073ffffffffffffffffffffffffffffffffffffffff1663a9059cbb33846040518363ffffffff1660e01b81526004016105dc9291906120b9565b6020604051808303816000875af11580156105fb573d6000803e3d6000fd5b505050506040513d601f19601f8201168201806040525081019061061f91906120f7565b503373ffffffffffffffffffffffffffffffffffffffff167fd8138f8a3f377c5259ca548e70e4c2de94f129f5a11036a15b69513cba2b426a836040516106669190611a44565b60405180910390a25050565b6000600754905090565b60007f0000000000000000000000000000000000000000000000000000000000000000905090565b7f000000000000000000000000000000000000000000000000000000000000000081565b6106d06110b9565b6106da6000611137565b565b6000600854905090565b60008060009054906101000a900473ffffffffffffffffffffffffffffffffffffffff16905090565b60008684604051602001610724929190612145565b604051602081830303815290604052805190602001209050600061078c8285858080601f016020809104026020016040519081016040528093929190818152602001838380828437600081840152601f19601f820116905080830192505050505050506111fb565b90506107966106e6565b73ffffffffffffffffffffffffffffffffffffffff168173ffffffffffffffffffffffffffffffffffffffff1614610803576040517f08c379a00000000000000000000000000000000000000000000000000000000081526004016107fa906121bd565b60405180910390fd5b60008790505b868110156108da576000600360008881526020019081526020016000208281548110610838576108376121dd565b5b9060005260206000200154905060028181548110610859576108586121dd565b5b906000526020600020906005020160040160009054906101000a900460ff166108c6578960028281548110610891576108906121dd565b5b90600052602060002090600502016000015414156108b9576108b4816001611270565b6108c5565b6108c4816000611270565b5b5b5080806108d29061223b565b915050610809565b505050505050505050565b60007f0000000000000000000000000000000000000000000000000000000000000000905090565b600061091a848484611771565b90509392505050565b6000600154905090565b60007f0000000000000000000000000000000000000000000000000000000000000000905090565b6000848460405160200161096a9291906122ed565b60405160208183030381529060405280519060200120905060006109d28285858080601f016020809104026020016040519081016040528093929190818152602001838380828437600081840152601f19601f820116905080830192505050505050506111fb565b90506109dc6106e6565b73ffffffffffffffffffffffffffffffffffffffff168173ffffffffffffffffffffffffffffffffffffffff1614610a49576040517f08c379a0000000000000000000000000000000000000000000000000000000008152600401610a4090612365565b60405180910390fd5b610a538686611270565b505050505050565b6000610a66826117db565b9050919050565b600080841480610a7d5750600083145b15610a8b5760009050610a99565b610a9684848461183f565b90505b9392505050565b60004284118015610ab057508442115b610aef576040517f08c379a0000000000000000000000000000000000000000000000000000000008152600401610ae6906123d1565b60405180910390fd5b60007f000000000000000000000000000000000000000000000000000000000000000073ffffffffffffffffffffffffffffffffffffffff166338d52e0f6040518163ffffffff1660e01b8152600401602060405180830381865afa158015610b5c573d6000803e3d6000fd5b505050506040513d601f19601f82011682018060405250810190610b80919061208c565b90506000610b8f8b8a8a611771565b90508173ffffffffffffffffffffffffffffffffffffffff166323b872dd337f00000000000000000000000000000000000000000000000000000000000000008c6040518463ffffffff1660e01b8152600401610bee939291906123f1565b6020604051808303816000875af1158015610c0d573d6000803e3d6000fd5b505050506040513d601f19601f82011682018060405250810190610c3191906120f7565b508173ffffffffffffffffffffffffffffffffffffffff166323b872dd7f00000000000000000000000000000000000000000000000000000000000000007f00000000000000000000000000000000000000000000000000000000000000008c85610c9c9190612428565b6040518463ffffffff1660e01b8152600401610cba939291906123f1565b6020604051808303816000875af1158015610cd9573d6000803e3d6000fd5b505050506040513d601f19601f82011682018060405250810190610cfd91906120f7565b5088600460008c81526020019081526020016000206000828254610d21919061245c565b9250508190555060026040518060c001604052808d81526020018b81526020018381526020018881526020016000151581526020013373ffffffffffffffffffffffffffffffffffffffff1681525090806001815401808255809150506001900390600052602060002090600502016000909190919091506000820151816000015560208201518160010155604082015181600201556060820151816003015560808201518160040160006101000a81548160ff02191690831515021790555060a08201518160040160016101000a81548173ffffffffffffffffffffffffffffffffffffffff021916908373ffffffffffffffffffffffffffffffffffffffff160217905550505060006002805490509050600360008c81526020019081526020016000208190806001815401808255809150506001900390600052602060002001600090919091909150558982610e7a9190612428565b60086000828254610e8b919061245c565b9250508190555060016000815480929190610ea59061223b565b91905055503373ffffffffffffffffffffffffffffffffffffffff167fd759bd709dd545e334bbbe1ec5f65be8969a61bba4499466675d5cfe7a36b5fe828e8e8e87604051610ef89594939291906124c1565b60405180910390a28093505050509998505050505050505050565b610f1b6110b9565b600073ffffffffffffffffffffffffffffffffffffffff168173ffffffffffffffffffffffffffffffffffffffff161415610f8b576040517f08c379a0000000000000000000000000000000000000000000000000000000008152600401610f8290612586565b60405180910390fd5b610f9481611137565b50565b7f000000000000000000000000000000000000000000000000000000000000000081565b60008060008060008060028781548110610fd857610fd76121dd565b5b90600052602060002090600502016040518060c0016040529081600082015481526020016001820154815260200160028201548152602001600382015481526020016004820160009054906101000a900460ff161515151581526020016004820160019054906101000a900473ffffffffffffffffffffffffffffffffffffffff1673ffffffffffffffffffffffffffffffffffffffff1673ffffffffffffffffffffffffffffffffffffffff1681525050905080602001518160400151826060015183608001518460a00151955095509550955095505091939590929450565b6110c1611973565b73ffffffffffffffffffffffffffffffffffffffff166110df6106e6565b73ffffffffffffffffffffffffffffffffffffffff1614611135576040517f08c379a000000000000000000000000000000000000000000000000000000000815260040161112c906125f2565b60405180910390fd5b565b60008060009054906101000a900473ffffffffffffffffffffffffffffffffffffffff169050816000806101000a81548173ffffffffffffffffffffffffffffffffffffffff021916908373ffffffffffffffffffffffffffffffffffffffff1602179055508173ffffffffffffffffffffffffffffffffffffffff168173ffffffffffffffffffffffffffffffffffffffff167f8be0079c531659141344cd1fd0a4f28419497f9722a3daafe3b4186f6b6457e060405160405180910390a35050565b60008060008061120a8561197b565b809350819450829550505050600186848484604051600081526020016040526040516112399493929190612612565b6020604051602081039080840390855afa15801561125b573d6000803e3d6000fd5b50505060206040510351935050505092915050565b6000151560028381548110611288576112876121dd565b5b906000526020600020906005020160040160009054906101000a900460ff161515146112e9576040517f08c379a00000000000000000000000000000000000000000000000000000000081526004016112e0906126c9565b60405180910390fd5b600282815481106112fd576112fc6121dd565b5b9060005260206000209060050201600301544261131a919061245c565b6002838154811061132e5761132d6121dd565b5b90600052602060002090600502016003015410611380576040517f08c379a000000000000000000000000000000000000000000000000000000000815260040161137790612735565b60405180910390fd5b600160028381548110611396576113956121dd565b5b906000526020600020906005020160040160006101000a81548160ff021916908315150217905550600282815481106113d2576113d16121dd565b5b906000526020600020906005020160020154600760008282546113f59190612428565b9250508190555060016007600082825461140f9190612428565b925050819055506002828154811061142a576114296121dd565b5b9060005260206000209060050201600201546008600082825461144d9190612428565b9250508190555060007f000000000000000000000000000000000000000000000000000000000000000073ffffffffffffffffffffffffffffffffffffffff166338d52e0f6040518163ffffffff1660e01b8152600401602060405180830381865afa1580156114c1573d6000803e3d6000fd5b505050506040513d601f19601f820116820180604052508101906114e5919061208c565b90506001151582151514156115de578073ffffffffffffffffffffffffffffffffffffffff1663a9059cbb60028581548110611524576115236121dd565b5b906000526020600020906005020160040160019054906101000a900473ffffffffffffffffffffffffffffffffffffffff166002868154811061156a576115696121dd565b5b9060005260206000209060050201600201546040518363ffffffff1660e01b81526004016115999291906120b9565b6020604051808303816000875af11580156115b8573d6000803e3d6000fd5b505050506040513d601f19601f820116820180604052508101906115dc91906120f7565b505b6000151582151514156116b0578073ffffffffffffffffffffffffffffffffffffffff1663a9059cbb7f00000000000000000000000000000000000000000000000000000000000000006002868154811061163c5761163b6121dd565b5b9060005260206000209060050201600201546040518363ffffffff1660e01b815260040161166b9291906120b9565b6020604051808303816000875af115801561168a573d6000803e3d6000fd5b505050506040513d601f19601f820116820180604052508101906116ae91906120f7565b505b600283815481106116c4576116c36121dd565b5b906000526020600020906005020160040160019054906101000a900473ffffffffffffffffffffffffffffffffffffffff1673ffffffffffffffffffffffffffffffffffffffff167f08a2a3d90b4a86017a5adf7503073c6b2b44051c48e9844a336190c9793c4af98460028681548110611742576117416121dd565b5b9060005260206000209060050201600201548560405161176493929190612755565b60405180910390a2505050565b60008082116117835761178261278c565b5b600083116117945761179361278c565b5b60006117a184848761183f565b905060008114156117b65760009150506117d4565b620f424084826117c691906127bb565b6117d09190612844565b9150505b9392505050565b60007f000000000000000000000000000000000000000000000000000000000000000060028367ffffffffffffffff168154811061181c5761181b6121dd565b5b906000526020600020906005020160030154611838919061245c565b9050919050565b6000807f000000000000000000000000000000000000000000000000000000000000000073ffffffffffffffffffffffffffffffffffffffff166301e1d1146040518163ffffffff1660e01b8152600401602060405180830381865afa1580156118ad573d6000803e3d6000fd5b505050506040513d601f19601f820116820180604052508101906118d1919061288a565b905060008114156118e657600091505061196c565b806006600085815260200190815260200160002054111561190b57600091505061196c565b60066000848152602001908152602001600020548161192a91906128b7565b90506103e8816103e88761193e919061294b565b6119489190612a62565b85611953919061294b565b61195d9190612a62565b8461196891906128b7565b9150505b9392505050565b600033905090565b6000806000604184511461198e57600080fd5b60008060006020870151925060408701519150606087015160001a90508083839550955095505050509193909250565b600080fd5b600080fd5b6000819050919050565b6119db816119c8565b81146119e657600080fd5b50565b6000813590506119f8816119d2565b92915050565b600060208284031215611a1457611a136119be565b5b6000611a22848285016119e9565b91505092915050565b6000819050919050565b611a3e81611a2b565b82525050565b6000602082019050611a596000830184611a35565b92915050565b611a6881611a2b565b8114611a7357600080fd5b50565b600081359050611a8581611a5f565b92915050565b600060208284031215611aa157611aa06119be565b5b6000611aaf84828501611a76565b91505092915050565b60008115159050919050565b611acd81611ab8565b82525050565b600073ffffffffffffffffffffffffffffffffffffffff82169050919050565b6000611afe82611ad3565b9050919050565b611b0e81611af3565b82525050565b600060a082019050611b296000830188611a35565b611b366020830187611a35565b611b436040830186611a35565b611b506060830185611ac4565b611b5d6080830184611b05565b9695505050505050565b6000602082019050611b7c6000830184611b05565b92915050565b600080fd5b600080fd5b600080fd5b60008083601f840112611ba757611ba6611b82565b5b8235905067ffffffffffffffff811115611bc457611bc3611b87565b5b602083019150836001820283011115611be057611bdf611b8c565b5b9250929050565b60008060008060008060a08789031215611c0457611c036119be565b5b6000611c1289828a016119e9565b9650506020611c2389828a01611a76565b9550506040611c3489828a01611a76565b9450506060611c4589828a016119e9565b935050608087013567ffffffffffffffff811115611c6657611c656119c3565b5b611c7289828a01611b91565b92509250509295509295509295565b600080600060608486031215611c9a57611c996119be565b5b6000611ca8868287016119e9565b9350506020611cb986828701611a76565b9250506040611cca86828701611a76565b9150509250925092565b600060ff82169050919050565b611cea81611cd4565b82525050565b6000602082019050611d056000830184611ce1565b92915050565b611d1481611ab8565b8114611d1f57600080fd5b50565b600081359050611d3181611d0b565b92915050565b60008060008060608587031215611d5157611d506119be565b5b6000611d5f87828801611a76565b9450506020611d7087828801611d22565b935050604085013567ffffffffffffffff811115611d9157611d906119c3565b5b611d9d87828801611b91565b925092505092959194509250565b600067ffffffffffffffff82169050919050565b611dc881611dab565b8114611dd357600080fd5b50565b600081359050611de581611dbf565b92915050565b600060208284031215611e0157611e006119be565b5b6000611e0f84828501611dd6565b91505092915050565b6000819050919050565b611e2b81611e18565b8114611e3657600080fd5b50565b600081359050611e4881611e22565b92915050565b600080600060608486031215611e6757611e666119be565b5b6000611e7586828701611e39565b9350506020611e8686828701611e39565b9250506040611e97868287016119e9565b9150509250925092565b611eaa81611e18565b82525050565b6000602082019050611ec56000830184611ea1565b92915050565b60008060008060008060008060006101008a8c031215611eee57611eed6119be565b5b6000611efc8c828d016119e9565b9950506020611f0d8c828d016119e9565b9850506040611f1e8c828d016119e9565b9750506060611f2f8c828d01611a76565b9650506080611f408c828d01611a76565b95505060a0611f518c828d01611a76565b94505060c0611f628c828d01611a76565b93505060e08a013567ffffffffffffffff811115611f8357611f826119c3565b5b611f8f8c828d01611b91565b92509250509295985092959850929598565b611faa81611af3565b8114611fb557600080fd5b50565b600081359050611fc781611fa1565b92915050565b600060208284031215611fe357611fe26119be565b5b6000611ff184828501611fb8565b91505092915050565b600082825260208201905092915050565b7f636c61696d3a204e6f206665657320746f20636c61696d000000000000000000600082015250565b6000612041601783611ffa565b915061204c8261200b565b602082019050919050565b6000602082019050818103600083015261207081612034565b9050919050565b60008151905061208681611fa1565b92915050565b6000602082840312156120a2576120a16119be565b5b60006120b084828501612077565b91505092915050565b60006040820190506120ce6000830185611b05565b6120db6020830184611a35565b9392505050565b6000815190506120f181611d0b565b92915050565b60006020828403121561210d5761210c6119be565b5b600061211b848285016120e2565b91505092915050565b6000819050919050565b61213f61213a826119c8565b612124565b82525050565b6000612151828561212e565b602082019150612161828461212e565b6020820191508190509392505050565b7f736574746c654d61726b65743a20496e76616c6964207369676e617475726500600082015250565b60006121a7601f83611ffa565b91506121b282612171565b602082019050919050565b600060208201905081810360008301526121d68161219a565b9050919050565b7f4e487b7100000000000000000000000000000000000000000000000000000000600052603260045260246000fd5b7f4e487b7100000000000000000000000000000000000000000000000000000000600052601160045260246000fd5b600061224682611a2b565b91507fffffffffffffffffffffffffffffffffffffffffffffffffffffffffffffffff8214156122795761227861220c565b5b600182019050919050565b6000819050919050565b61229f61229a82611a2b565b612284565b82525050565b60008160f81b9050919050565b60006122bd826122a5565b9050919050565b60006122cf826122b2565b9050919050565b6122e76122e282611ab8565b6122c4565b82525050565b60006122f9828561228e565b60208201915061230982846122d6565b6001820191508190509392505050565b7f736574746c653a20496e76616c6964207369676e617475726500000000000000600082015250565b600061234f601983611ffa565b915061235a82612319565b602082019050919050565b6000602082019050818103600083015261237e81612342565b9050919050565b7f6261636b3a20496e76616c696420646174650000000000000000000000000000600082015250565b60006123bb601283611ffa565b91506123c682612385565b602082019050919050565b600060208201905081810360008301526123ea816123ae565b9050919050565b60006060820190506124066000830186611b05565b6124136020830185611b05565b6124206040830184611a35565b949350505050565b600061243382611a2b565b915061243e83611a2b565b9250828210156124515761245061220c565b5b828203905092915050565b600061246782611a2b565b915061247283611a2b565b9250827fffffffffffffffffffffffffffffffffffffffffffffffffffffffffffffffff038211156124a7576124a661220c565b5b828201905092915050565b6124bb816119c8565b82525050565b600060a0820190506124d66000830188611a35565b6124e360208301876124b2565b6124f060408301866124b2565b6124fd6060830185611a35565b61250a6080830184611a35565b9695505050505050565b7f4f776e61626c653a206e6577206f776e657220697320746865207a65726f206160008201527f6464726573730000000000000000000000000000000000000000000000000000602082015250565b6000612570602683611ffa565b915061257b82612514565b604082019050919050565b6000602082019050818103600083015261259f81612563565b9050919050565b7f4f776e61626c653a2063616c6c6572206973206e6f7420746865206f776e6572600082015250565b60006125dc602083611ffa565b91506125e7826125a6565b602082019050919050565b6000602082019050818103600083015261260b816125cf565b9050919050565b600060808201905061262760008301876124b2565b6126346020830186611ce1565b61264160408301856124b2565b61264e60608301846124b2565b95945050505050565b7f5f736574746c653a204265742068617320616c7265616479206265656e20736560008201527f74746c6564000000000000000000000000000000000000000000000000000000602082015250565b60006126b3602583611ffa565b91506126be82612657565b604082019050919050565b600060208201905081810360008301526126e2816126a6565b9050919050565b7f5f736574746c653a204d61726b6574206e6f7420636c6f736564000000000000600082015250565b600061271f601a83611ffa565b915061272a826126e9565b602082019050919050565b6000602082019050818103600083015261274e81612712565b9050919050565b600060608201905061276a6000830186611a35565b6127776020830185611a35565b6127846040830184611ac4565b949350505050565b7f4e487b7100000000000000000000000000000000000000000000000000000000600052600160045260246000fd5b60006127c682611a2b565b91506127d183611a2b565b9250817fffffffffffffffffffffffffffffffffffffffffffffffffffffffffffffffff048311821515161561280a5761280961220c565b5b828202905092915050565b7f4e487b7100000000000000000000000000000000000000000000000000000000600052601260045260246000fd5b600061284f82611a2b565b915061285a83611a2b565b92508261286a57612869612815565b5b828204905092915050565b60008151905061288481611a5f565b92915050565b6000602082840312156128a05761289f6119be565b5b60006128ae84828501612875565b91505092915050565b60006128c282611e18565b91506128cd83611e18565b9250827f8000000000000000000000000000000000000000000000000000000000000000018212600084121516156129085761290761220c565b5b827f7fffffffffffffffffffffffffffffffffffffffffffffffffffffffffffffff0182136000841216156129405761293f61220c565b5b828203905092915050565b600061295682611e18565b915061296183611e18565b9250827f7fffffffffffffffffffffffffffffffffffffffffffffffffffffffffffffff04821160008413600084131616156129a05761299f61220c565b5b817f800000000000000000000000000000000000000000000000000000000000000005831260008412600084131616156129dd576129dc61220c565b5b827f80000000000000000000000000000000000000000000000000000000000000000582126000841360008412161615612a1a57612a1961220c565b5b827f7fffffffffffffffffffffffffffffffffffffffffffffffffffffffffffffff0582126000841260008412161615612a5757612a5661220c565b5b828202905092915050565b6000612a6d82611e18565b9150612a7883611e18565b925082612a8857612a87612815565b5b600160000383147f800000000000000000000000000000000000000000000000000000000000000083141615612ac157612ac061220c565b5b82820590509291505056fea264697066735822122019895c6639bbe130fd8767a1753d4701601ff7e2ce59e97b6ee179cc5473064364736f6c634300080a0033",
  "immutableReferences": {
    "1068": [
      {
        "length": 32,
        "start": 2353
      }
    ],
    "1072": [
      {
        "length": 32,
        "start": 1298
      },
      {
        "length": 32,
        "start": 1664
      },
      {
        "length": 32,
        "start": 2803
      },
      {
        "length": 32,
        "start": 3152
      },
      {
        "length": 32,
        "start": 5208
      },
      {
        "length": 32,
        "start": 5641
      },
      {
        "length": 32,
        "start": 6212
      }
    ],
    "1074": [
      {
        "length": 32,
        "start": 2992
      },
      {
        "length": 32,
        "start": 3185
      }
    ],
    "1076": [
      {
        "length": 32,
        "start": 2281
      }
    ],
    "1107": [
      {
        "length": 32,
        "start": 1702
      },
      {
        "length": 32,
        "start": 6111
      }
    ],
    "1109": [
      {
        "length": 32,
        "start": 3993
      }
    ]
  },
  "source": "// SPDX-License-Identifier: MIT\npragma solidity =0.8.10;\n\nimport \"@openzeppelin/contracts/access/Ownable.sol\";\n\nimport { IBet } from \"./IBet.sol\";\nimport \"./IVault.sol\";\nimport \"./IMarket.sol\";\n\n// Put these in the ERC721 contract\nstruct Bet {\n    bytes32 propositionId;\n    uint256 amount;\n    uint256 payout;\n    uint256 payoutDate;\n    bool settled;\n    address owner;\n}\n\ncontract Market is Ownable, IMarket {\n\n    uint256 private constant MAX = 32;\n    int256 private constant PRECESSION = 1_000;\n    uint8 private immutable _fee;\n    uint8 private immutable _workerfee;\n    address private immutable _vault;\n    address private immutable _self;\n    address private immutable _oracle;\n\n    uint256 private _inplayCount; // running count of bets\n\n    Bet[] private _bets;\n    // MarketID => Bets Indexes\n    mapping(bytes32 => uint256[]) private _marketBets;\n\n    // MarketID => amount bet\n    mapping(bytes32 => uint256) private _marketTotal;\n\n    // MarketID => PropositionID => amount bet\n    mapping(bytes32 => mapping(uint16 => uint256)) private _marketBetAmount;\n\n    // PropositionID => amount bet\n    mapping(bytes32 => uint256) private _potentialPayout;\n\n    uint256 private _totalInPlay;\n    uint256 private _totalExposure;\n\n    // Can claim after this period regardless\n    uint256 public immutable timeout;\n    uint256 public immutable min;\n\n    mapping(address => uint256) private _workerfees;\n\n    function getFee() external view returns (uint8) {\n        return _fee;\n    }\n\n    function getTotalInPlay() external view returns (uint256) {\n        return _totalInPlay;\n    }\n\n    function getInPlayCount() external view returns (uint256) {\n        return _inplayCount; // this is incorrect\n    }\n\n    function _getCount() external view returns (uint256) {\n        return _bets.length;\n    }\n\n    function getTotalExposure() external view returns (uint256) {\n        return _totalExposure;\n    }\n\n    function getOracleAddress() external view returns (address) {\n        return _oracle;\n    }\n\n    function getVaultAddress() external view returns (address) {\n        return _vault;\n    }\n\n    function getExpiry(uint64 id) external view returns (uint256) {\n        return _getExpiry(id);\n    }\n\n    function getMarketTotal(bytes32 marketId) external view returns (uint256) {\n        return _marketTotal[marketId];\n    }\n\n    function _getExpiry(uint64 id) private view returns (uint256) {\n        return _bets[id].payoutDate + timeout;\n    }\n\n    constructor(address vault, uint8 fee, address oracle) {\n        require(vault != address(0), \"Invalid address\");\n        _self = address(this);\n        _vault = vault;\n        _fee = fee;\n        _workerfee = 10;\n        _oracle = oracle;\n        \n        timeout = 30 days;\n        min = 1 hours;\n    }\n\n    // function getBetById(bytes32 id) external view returns (uint256, uint256, uint256, bool, address) {\n    //     uint64 index = _betsIndexes[id];\n    //     return _getBet(index);\n    // }\n\n    function getBetByIndex(uint256 index) external view returns (uint256, uint256, uint256, bool, address) {\n        return _getBet(index);\n    }\n\n    function _getBet(uint256 index) private view returns (uint256, uint256, uint256, bool, address) {\n        Bet memory bet = _bets[index];\n        return (bet.amount, bet.payout, bet.payoutDate, bet.settled, bet.owner);\n    }\n\n    // function getBetById(bytes32 id) external view returns (uint256, uint256, uint256, bool, address) {\n    //     // bytes32 index = _betsIndexes[id];\n    //     // Bet memory bet = _bets[id];\n    //     // return (bet.amount, bet.payout, bet.payoutDate, bet.claimed, bet.owner);\n    //     return 0;\n    // }\n\n    function getOdds(int256 wager, int256 odds, bytes32 propositionId) external view returns (int256) {\n        if (wager == 0 || odds == 0) return 0;\n        \n        return _getOdds(wager, odds, propositionId);\n    }\n    \n    function _getOdds(int256 wager, int256 odds, bytes32 propositionId) private view returns (int256) {\n        int256 p = int256(IVault(_vault).totalAssets());\n\n        if (p == 0) {\n            return 0;\n        }\n\n        // f(wager) = odds - odds*(wager/pool) \n        if (_potentialPayout[propositionId] > uint256(p)) {\n            return 0;\n        }\n\n        // do not include this guy in the return\n        p -= int256(_potentialPayout[propositionId]);\n\n        return odds - (odds * (wager * PRECESSION / p) / PRECESSION);\n    }\n\n    function getPotentialPayout(bytes32 propositionId, uint256 wager, uint256 odds) external view returns (uint256) {\n        return _getPayout(propositionId, wager, odds);\n    }\n\n    function _getPayout(bytes32 propositionId, uint256 wager, uint256 odds) private view returns (uint256) {\n        assert(odds > 0);\n        assert(wager > 0);\n        \n        // add underlying to the market\n        int256 trueOdds = _getOdds(int256(wager), int256(odds), propositionId);\n        if (trueOdds == 0) {\n            return 0;\n        }\n\n        return uint256(trueOdds) * wager / 1_000_000;\n    }\n\n    function back(bytes32 nonce, bytes32 propositionId, bytes32 marketId, uint256 wager, uint256 odds, uint256 close, uint256 end, bytes calldata signature) external returns (uint256) {\n        require(end > block.timestamp && block.timestamp > close, \"back: Invalid date\");\n        \n        address underlying = IVault(_vault).asset();\n\n        // add underlying to the market\n        uint256 payout = _getPayout(propositionId, wager, odds);\n\n        // escrow\n        IERC20(underlying).transferFrom(msg.sender, _self, wager);\n        IERC20(underlying).transferFrom(_vault, _self, (payout - wager));\n\n        // add to the market\n        _marketTotal[marketId] += wager;\n\n        _bets.push(Bet(propositionId, wager, payout, end, false, msg.sender));\n        uint256 count = _bets.length;\n        _marketBets[marketId].push(count);\n\n        // _totalInPlay += payout;\n        _totalExposure += (payout - wager);\n        _inplayCount++;\n\n        emit Placed(count, propositionId, marketId, wager, payout, msg.sender);\n\n        return count; // token ID\n    }\n\n    function claim() external {\n        uint256 workerfee = _workerfees[msg.sender];\n        require(workerfee > 0, \"claim: No fees to claim\");\n\n        _workerfees[msg.sender] = 0;\n        address underlying = IVault(_vault).asset();\n        IERC20(underlying).transfer(msg.sender, workerfee); \n\n        emit Claimed(msg.sender, workerfee);\n    }\n\n    function settle(uint256 index, bool result, bytes calldata signature) external {\n        bytes32 message = keccak256(abi.encodePacked(index, result));\n        address marketOwner = recoverSigner(message, signature);\n        require(marketOwner == owner(), \"settle: Invalid signature\");\n\n        _settle(index, result);\n    }\n\n    function settleMarket(bytes32 propositionId, uint256 from, uint256 to, bytes32 marketId, bytes calldata signature) external {\n        bytes32 message = keccak256(abi.encodePacked(propositionId, marketId));\n        address marketOwner = recoverSigner(message, signature);\n        require(marketOwner == owner(), \"settleMarket: Invalid signature\");\n\n        for (uint256 i = from; i < to; i++) {\n            uint256 index = _marketBets[marketId][i];\n\n            if (!_bets[index].settled) {\n                if (_bets[index].propositionId == propositionId) {\n                    _settle(index, true);\n                } else {\n                    _settle(index, false);\n                }\n            }\n        }\n    }\n\n    function _settle(uint256 id, bool result) private {\n        require(_bets[id].settled == false, \"_settle: Bet has already been settled\");\n        require(_bets[id].payoutDate < block.timestamp + _bets[id].payoutDate, \"_settle: Market not closed\");\n\n        _bets[id].settled = true;\n        _totalInPlay -= _bets[id].payout;\n        _totalInPlay -= 1;\n        _totalExposure -= _bets[id].payout;\n\n        address underlying = IVault(_vault).asset();\n\n        if (result == true) {\n            // Transfer the win to the punter\n            IERC20(underlying).transfer(_bets[id].owner, _bets[id].payout);    \n        }\n\n        if (result == false) {\n            // Transfer the proceeds to the vault\n            IERC20(underlying).transfer(_vault, _bets[id].payout);\n        }\n\n        emit Settled(id, _bets[id].payout, result, _bets[id].owner);\n    }\n\n    modifier onlyMarketOwner(bytes32 messageHash, bytes memory signature) {\n        bytes32 ethSignedMessageHash = getEthSignedMessageHash(messageHash);\n        require(recoverSigner(ethSignedMessageHash, signature) == owner(), \"onlyMarketOwner: Invalid signature\");\n        _;\n    }\n\n    function getEthSignedMessageHash(bytes32 messageHash)\n        internal\n        pure\n        returns (bytes32)\n    {\n        /*\n        Signature is produced by signing a keccak256 hash with the following format:\n        \"\\x19Ethereum Signed Message\\n\" + len(msg) + msg\n        */\n        return keccak256(abi.encodePacked(\"\\x19Ethereum Signed Message:\\n32\", messageHash));\n    }\n\n    function recoverSigner(bytes32 message, bytes memory signature)\n        private\n        pure\n        returns (address)\n    {\n        uint8 v;\n        bytes32 r;\n        bytes32 s;\n\n        (v, r, s) = splitSignature(signature);\n\n        return ecrecover(message, v, r, s);\n    }\n\n    function splitSignature(bytes memory signature)\n        private\n        pure\n        returns (uint8, bytes32, bytes32)\n    {\n        require(signature.length == 65);\n\n        bytes32 r;\n        bytes32 s;\n        uint8 v;\n\n        assembly {\n            // first 32 bytes, after the length prefix\n            r := mload(add(signature, 32))\n            // second 32 bytes\n            s := mload(add(signature, 64))\n            // final byte (first byte of the next 32 bytes)\n            v := byte(0, mload(add(signature, 96)))\n        }\n\n        return (v, r, s);\n    }\n\n    event Claimed(address indexed worker, uint256 amount);\n    event Placed(uint256 index, bytes32 propositionId, bytes32 marketId, uint256 amount, uint256 payout, address indexed owner);\n    event Settled(uint256 id, uint256 payout, bool result, address indexed owner);\n}",
  "sourcePath": "/home/lucascullen/GitHub/horse-link/horse.link/contracts/Market.sol",
  "compiler": {
    "name": "solc",
    "version": "0.8.10+commit.fc410830.Emscripten.clang"
  },
  "schemaVersion": "3.4.10",
  "updatedAt": "2022-10-27T02:32:05.855Z",
  "devdoc": {
    "kind": "dev",
    "methods": {
      "owner()": {
        "details": "Returns the address of the current owner."
      },
      "renounceOwnership()": {
        "details": "Leaves the contract without owner. It will not be possible to call `onlyOwner` functions anymore. Can only be called by the current owner. NOTE: Renouncing ownership will leave the contract without an owner, thereby removing any functionality that is only available to the owner."
      },
      "transferOwnership(address)": {
        "details": "Transfers ownership of the contract to a new account (`newOwner`). Can only be called by the current owner."
      }
    },
    "version": 1
  },
  "userdoc": {
    "kind": "user",
    "methods": {},
    "version": 1
  }
}