{
  "contractName": "Registry",
  "abi": [
    {
      "anonymous": false,
      "inputs": [
        {
          "indexed": true,
          "internalType": "address",
          "name": "market",
          "type": "address"
        }
      ],
      "name": "MarketAdded",
      "type": "event"
    },
    {
      "anonymous": false,
      "inputs": [
        {
          "indexed": true,
          "internalType": "address",
          "name": "vault",
          "type": "address"
        }
      ],
      "name": "VaultAdded",
      "type": "event"
    },
    {
      "inputs": [
        {
          "internalType": "uint256",
          "name": "",
          "type": "uint256"
        }
      ],
      "name": "markets",
      "outputs": [
        {
          "internalType": "address",
          "name": "",
          "type": "address"
        }
      ],
      "stateMutability": "view",
      "type": "function"
    },
    {
      "inputs": [
        {
          "internalType": "address",
          "name": "",
          "type": "address"
        }
      ],
      "name": "underlying",
      "outputs": [
        {
          "internalType": "address",
          "name": "",
          "type": "address"
        }
      ],
      "stateMutability": "view",
      "type": "function"
    },
    {
      "inputs": [
        {
          "internalType": "uint256",
          "name": "",
          "type": "uint256"
        }
      ],
      "name": "vaults",
      "outputs": [
        {
          "internalType": "address",
          "name": "",
          "type": "address"
        }
      ],
      "stateMutability": "view",
      "type": "function"
    },
    {
      "inputs": [],
      "name": "marketCount",
      "outputs": [
        {
          "internalType": "uint256",
          "name": "",
          "type": "uint256"
        }
      ],
      "stateMutability": "view",
      "type": "function"
    },
    {
      "inputs": [],
      "name": "vaultCount",
      "outputs": [
        {
          "internalType": "uint256",
          "name": "",
          "type": "uint256"
        }
      ],
      "stateMutability": "view",
      "type": "function"
    },
    {
      "inputs": [
        {
          "internalType": "address",
          "name": "vault",
          "type": "address"
        }
      ],
      "name": "addVault",
      "outputs": [],
      "stateMutability": "nonpayable",
      "type": "function"
    },
    {
      "inputs": [
        {
          "internalType": "address",
          "name": "market",
          "type": "address"
        }
      ],
      "name": "addMarket",
      "outputs": [],
      "stateMutability": "nonpayable",
      "type": "function"
    }
  ],
  "bytecode": "0x608060405234801561001057600080fd5b5061079d806100206000396000f3fe608060405234801561001057600080fd5b506004361061007d5760003560e01c8063a7c6a1001161005b578063a7c6a100146100ea578063b1283e7714610108578063e6919c8214610138578063ec979082146101685761007d565b8063256b5a02146100825780638c64ea4a1461009e57806393e30633146100ce575b600080fd5b61009c600480360381019061009791906105c4565b610186565b005b6100b860048036038101906100b39190610627565b6103ed565b6040516100c59190610663565b60405180910390f35b6100e860048036038101906100e391906105c4565b61042c565b005b6100f26104d5565b6040516100ff919061068d565b60405180910390f35b610122600480360381019061011d9190610627565b6104e2565b60405161012f9190610663565b60405180910390f35b610152600480360381019061014d91906105c4565b610521565b60405161015f9190610663565b60405180910390f35b610170610554565b60405161017d919061068d565b60405180910390f35b60008173ffffffffffffffffffffffffffffffffffffffff166338d52e0f6040518163ffffffff1660e01b8152600401602060405180830381865afa1580156101d3573d6000803e3d6000fd5b505050506040513d601f19601f820116820180604052508101906101f791906106bd565b9050600073ffffffffffffffffffffffffffffffffffffffff166000808373ffffffffffffffffffffffffffffffffffffffff1673ffffffffffffffffffffffffffffffffffffffff16815260200190815260200160002060009054906101000a900473ffffffffffffffffffffffffffffffffffffffff1673ffffffffffffffffffffffffffffffffffffffff16146102c6576040517f08c379a00000000000000000000000000000000000000000000000000000000081526004016102bd90610747565b60405180910390fd5b6002829080600181540180825580915050600190039060005260206000200160009091909190916101000a81548173ffffffffffffffffffffffffffffffffffffffff021916908373ffffffffffffffffffffffffffffffffffffffff160217905550816000808373ffffffffffffffffffffffffffffffffffffffff1673ffffffffffffffffffffffffffffffffffffffff16815260200190815260200160002060006101000a81548173ffffffffffffffffffffffffffffffffffffffff021916908373ffffffffffffffffffffffffffffffffffffffff1602179055508173ffffffffffffffffffffffffffffffffffffffff167f7b7ef7a864d96a85497a1ed846adb39940dd6ccef678ff6ac8d55505e09b8cc460405160405180910390a25050565b600281815481106103fd57600080fd5b906000526020600020016000915054906101000a900473ffffffffffffffffffffffffffffffffffffffff1681565b6001819080600181540180825580915050600190039060005260206000200160009091909190916101000a81548173ffffffffffffffffffffffffffffffffffffffff021916908373ffffffffffffffffffffffffffffffffffffffff1602179055508073ffffffffffffffffffffffffffffffffffffffff167fbc600b1f03d316c479b49930c28e328809316458d5b5dacbb7419df5f6f8964760405160405180910390a250565b6000600280549050905090565b600181815481106104f257600080fd5b906000526020600020016000915054906101000a900473ffffffffffffffffffffffffffffffffffffffff1681565b60006020528060005260406000206000915054906101000a900473ffffffffffffffffffffffffffffffffffffffff1681565b6000600180549050905090565b600080fd5b600073ffffffffffffffffffffffffffffffffffffffff82169050919050565b600061059182610566565b9050919050565b6105a181610586565b81146105ac57600080fd5b50565b6000813590506105be81610598565b92915050565b6000602082840312156105da576105d9610561565b5b60006105e8848285016105af565b91505092915050565b6000819050919050565b610604816105f1565b811461060f57600080fd5b50565b600081359050610621816105fb565b92915050565b60006020828403121561063d5761063c610561565b5b600061064b84828501610612565b91505092915050565b61065d81610586565b82525050565b60006020820190506106786000830184610654565b92915050565b610687816105f1565b82525050565b60006020820190506106a2600083018461067e565b92915050565b6000815190506106b781610598565b92915050565b6000602082840312156106d3576106d2610561565b5b60006106e1848285016106a8565b91505092915050565b600082825260208201905092915050565b7f5661756c7420616c726561647920616464656400000000000000000000000000600082015250565b60006107316013836106ea565b915061073c826106fb565b602082019050919050565b6000602082019050818103600083015261076081610724565b905091905056fea2646970667358221220568137c088ae72c47adeaa33adbeaee1fd4786d692cf057b9d926b9c95c697fb64736f6c634300080a0033",
  "immutableReferences": {},
  "source": "// SPDX-License-Identifier: MIT\npragma solidity =0.8.10;\n\nimport \"./IMarket.sol\";\nimport \"./IVault.sol\";\n\ncontract Registry {\n\n    mapping(address => address) public underlying;\n    address[] public markets;\n    address[] public vaults;\n\n    function marketCount() external view returns (uint256) {\n        return markets.length;\n    }\n\n    function vaultCount() external view returns (uint256) {\n        return vaults.length;\n    }\n\n    function addVault(address vault) external {\n        address _underlying = IVault(vault).asset();\n        require(underlying[_underlying] == address(0), \"Vault already added\");\n\n        vaults.push(vault);\n        underlying[_underlying] = vault; // underlying to vault\n\n        emit VaultAdded(vault);\n    }\n\n    function addMarket(address market) external {\n        markets.push(market);\n        emit MarketAdded(market);\n    }\n\n    event MarketAdded(address indexed market);\n    event VaultAdded(address indexed vault);\n}\n",
  "sourcePath": "/home/lucascullen/GitHub/horse-link/horse.link/contracts/Registry.sol",
  "compiler": {
    "name": "solc",
    "version": "0.8.10+commit.fc410830.Emscripten.clang"
  },
  "schemaVersion": "3.4.10",
  "updatedAt": "2022-10-09T00:55:38.673Z",
  "devdoc": {
    "kind": "dev",
    "methods": {},
    "version": 1
  },
  "userdoc": {
    "kind": "user",
    "methods": {},
    "version": 1
  }
}