{
  "contractName": "Vault",
  "abi": [
    {
      "inputs": [
        {
          "internalType": "address",
          "name": "underlying",
          "type": "address"
        }
      ],
      "stateMutability": "nonpayable",
      "type": "constructor"
    },
    {
      "anonymous": false,
      "inputs": [
        {
          "indexed": true,
          "internalType": "address",
          "name": "owner",
          "type": "address"
        },
        {
          "indexed": true,
          "internalType": "address",
          "name": "spender",
          "type": "address"
        },
        {
          "indexed": false,
          "internalType": "uint256",
          "name": "value",
          "type": "uint256"
        }
      ],
      "name": "Approval",
      "type": "event"
    },
    {
      "anonymous": false,
      "inputs": [
        {
          "indexed": true,
          "internalType": "address",
          "name": "who",
          "type": "address"
        },
        {
          "indexed": false,
          "internalType": "uint256",
          "name": "value",
          "type": "uint256"
        }
      ],
      "name": "Deposit",
      "type": "event"
    },
    {
      "anonymous": false,
      "inputs": [
        {
          "indexed": true,
          "internalType": "address",
          "name": "previousOwner",
          "type": "address"
        },
        {
          "indexed": true,
          "internalType": "address",
          "name": "newOwner",
          "type": "address"
        }
      ],
      "name": "OwnershipTransferred",
      "type": "event"
    },
    {
      "anonymous": false,
      "inputs": [
        {
          "indexed": true,
          "internalType": "address",
          "name": "from",
          "type": "address"
        },
        {
          "indexed": true,
          "internalType": "address",
          "name": "to",
          "type": "address"
        },
        {
          "indexed": false,
          "internalType": "uint256",
          "name": "value",
          "type": "uint256"
        }
      ],
      "name": "Transfer",
      "type": "event"
    },
    {
      "anonymous": false,
      "inputs": [
        {
          "indexed": true,
          "internalType": "address",
          "name": "who",
          "type": "address"
        },
        {
          "indexed": false,
          "internalType": "uint256",
          "name": "value",
          "type": "uint256"
        }
      ],
      "name": "Withdraw",
      "type": "event"
    },
    {
      "inputs": [],
      "name": "owner",
      "outputs": [
        {
          "internalType": "address",
          "name": "",
          "type": "address"
        }
      ],
      "stateMutability": "view",
      "type": "function"
    },
    {
      "inputs": [],
      "name": "renounceOwnership",
      "outputs": [],
      "stateMutability": "nonpayable",
      "type": "function"
    },
    {
      "inputs": [
        {
          "internalType": "address",
          "name": "newOwner",
          "type": "address"
        }
      ],
      "name": "transferOwnership",
      "outputs": [],
      "stateMutability": "nonpayable",
      "type": "function"
    },
    {
      "inputs": [],
      "name": "name",
      "outputs": [
        {
          "internalType": "string",
          "name": "",
          "type": "string"
        }
      ],
      "stateMutability": "view",
      "type": "function"
    },
    {
      "inputs": [],
      "name": "symbol",
      "outputs": [
        {
          "internalType": "string",
          "name": "",
          "type": "string"
        }
      ],
      "stateMutability": "view",
      "type": "function"
    },
    {
      "inputs": [],
      "name": "decimals",
      "outputs": [
        {
          "internalType": "uint8",
          "name": "",
          "type": "uint8"
        }
      ],
      "stateMutability": "view",
      "type": "function"
    },
    {
      "inputs": [],
      "name": "totalSupply",
      "outputs": [
        {
          "internalType": "uint256",
          "name": "",
          "type": "uint256"
        }
      ],
      "stateMutability": "view",
      "type": "function"
    },
    {
      "inputs": [
        {
          "internalType": "address",
          "name": "account",
          "type": "address"
        }
      ],
      "name": "balanceOf",
      "outputs": [
        {
          "internalType": "uint256",
          "name": "",
          "type": "uint256"
        }
      ],
      "stateMutability": "view",
      "type": "function"
    },
    {
      "inputs": [],
      "name": "getMarket",
      "outputs": [
        {
          "internalType": "address",
          "name": "",
          "type": "address"
        }
      ],
      "stateMutability": "view",
      "type": "function"
    },
    {
      "inputs": [
        {
          "internalType": "address",
          "name": "market",
          "type": "address"
        }
      ],
      "name": "setMarket",
      "outputs": [],
      "stateMutability": "nonpayable",
      "type": "function"
    },
    {
      "inputs": [],
      "name": "getPerformance",
      "outputs": [
        {
          "internalType": "uint256",
          "name": "",
          "type": "uint256"
        }
      ],
      "stateMutability": "view",
      "type": "function"
    },
    {
      "inputs": [
        {
          "internalType": "uint256",
          "name": "shares",
          "type": "uint256"
        }
      ],
      "name": "convertToAssets",
      "outputs": [
        {
          "internalType": "uint256",
          "name": "assets",
          "type": "uint256"
        }
      ],
      "stateMutability": "view",
      "type": "function"
    },
    {
      "inputs": [
        {
          "internalType": "uint256",
          "name": "assets",
          "type": "uint256"
        }
      ],
      "name": "convertToShares",
      "outputs": [
        {
          "internalType": "uint256",
          "name": "shares",
          "type": "uint256"
        }
      ],
      "stateMutability": "view",
      "type": "function"
    },
    {
      "inputs": [],
      "name": "asset",
      "outputs": [
        {
          "internalType": "address",
          "name": "assetTokenAddress",
          "type": "address"
        }
      ],
      "stateMutability": "view",
      "type": "function"
    },
    {
      "inputs": [],
      "name": "totalAssets",
      "outputs": [
        {
          "internalType": "uint256",
          "name": "",
          "type": "uint256"
        }
      ],
      "stateMutability": "view",
      "type": "function"
    },
    {
      "inputs": [
        {
          "internalType": "address",
          "name": "to",
          "type": "address"
        },
        {
          "internalType": "uint256",
          "name": "amount",
          "type": "uint256"
        }
      ],
      "name": "transfer",
      "outputs": [
        {
          "internalType": "bool",
          "name": "",
          "type": "bool"
        }
      ],
      "stateMutability": "nonpayable",
      "type": "function"
    },
    {
      "inputs": [
        {
          "internalType": "address",
          "name": "owner",
          "type": "address"
        },
        {
          "internalType": "address",
          "name": "spender",
          "type": "address"
        }
      ],
      "name": "allowance",
      "outputs": [
        {
          "internalType": "uint256",
          "name": "",
          "type": "uint256"
        }
      ],
      "stateMutability": "view",
      "type": "function"
    },
    {
      "inputs": [
        {
          "internalType": "address",
          "name": "spender",
          "type": "address"
        },
        {
          "internalType": "uint256",
          "name": "amount",
          "type": "uint256"
        }
      ],
      "name": "approve",
      "outputs": [
        {
          "internalType": "bool",
          "name": "",
          "type": "bool"
        }
      ],
      "stateMutability": "nonpayable",
      "type": "function"
    },
    {
      "inputs": [
        {
          "internalType": "address",
          "name": "from",
          "type": "address"
        },
        {
          "internalType": "address",
          "name": "to",
          "type": "address"
        },
        {
          "internalType": "uint256",
          "name": "amount",
          "type": "uint256"
        }
      ],
      "name": "transferFrom",
      "outputs": [
        {
          "internalType": "bool",
          "name": "",
          "type": "bool"
        }
      ],
      "stateMutability": "nonpayable",
      "type": "function"
    },
    {
      "inputs": [
        {
          "internalType": "address",
          "name": "spender",
          "type": "address"
        },
        {
          "internalType": "uint256",
          "name": "addedValue",
          "type": "uint256"
        }
      ],
      "name": "increaseAllowance",
      "outputs": [
        {
          "internalType": "bool",
          "name": "",
          "type": "bool"
        }
      ],
      "stateMutability": "nonpayable",
      "type": "function"
    },
    {
      "inputs": [
        {
          "internalType": "address",
          "name": "spender",
          "type": "address"
        },
        {
          "internalType": "uint256",
          "name": "subtractedValue",
          "type": "uint256"
        }
      ],
      "name": "decreaseAllowance",
      "outputs": [
        {
          "internalType": "bool",
          "name": "",
          "type": "bool"
        }
      ],
      "stateMutability": "nonpayable",
      "type": "function"
    },
    {
      "inputs": [
        {
          "internalType": "uint256",
          "name": "assets",
          "type": "uint256"
        },
        {
          "internalType": "address",
          "name": "receiver",
          "type": "address"
        }
      ],
      "name": "deposit",
      "outputs": [
        {
          "internalType": "uint256",
          "name": "shares",
          "type": "uint256"
        }
      ],
      "stateMutability": "nonpayable",
      "type": "function"
    },
    {
      "inputs": [
        {
          "internalType": "address",
          "name": "owner",
          "type": "address"
        }
      ],
      "name": "maxWithdraw",
      "outputs": [
        {
          "internalType": "uint256",
          "name": "maxAssets",
          "type": "uint256"
        }
      ],
      "stateMutability": "view",
      "type": "function"
    },
    {
      "inputs": [
        {
          "internalType": "uint256",
          "name": "assets",
          "type": "uint256"
        }
      ],
      "name": "previewWithdraw",
      "outputs": [
        {
          "internalType": "uint256",
          "name": "shares",
          "type": "uint256"
        }
      ],
      "stateMutability": "view",
      "type": "function"
    },
    {
      "inputs": [
        {
          "internalType": "uint256",
          "name": "shares",
          "type": "uint256"
        }
      ],
      "name": "withdraw",
      "outputs": [],
      "stateMutability": "nonpayable",
      "type": "function"
    }
  ],
  "bytecode": "0x60c06040523480156200001157600080fd5b50604051620036a7380380620036a783398181016040528101906200003791906200051a565b620000576200004b6200032560201b60201c565b6200032d60201b60201c565b600073ffffffffffffffffffffffffffffffffffffffff168173ffffffffffffffffffffffffffffffffffffffff161415620000ca576040517f08c379a0000000000000000000000000000000000000000000000000000000008152600401620000c190620005ad565b60405180910390fd5b3073ffffffffffffffffffffffffffffffffffffffff1660a08173ffffffffffffffffffffffffffffffffffffffff16815250508073ffffffffffffffffffffffffffffffffffffffff1660808173ffffffffffffffffffffffffffffffffffffffff16815250508073ffffffffffffffffffffffffffffffffffffffff166395d89b416040518163ffffffff1660e01b8152600401600060405180830381865afa1580156200017e573d6000803e3d6000fd5b505050506040513d6000823e3d601f19601f82011682018060405250810190620001a9919062000758565b604051602001620001bb919062000846565b60405160208183030381529060405260069080519060200190620001e1929190620003f1565b508073ffffffffffffffffffffffffffffffffffffffff166306fdde036040518163ffffffff1660e01b8152600401600060405180830381865afa1580156200022e573d6000803e3d6000fd5b505050506040513d6000823e3d601f19601f8201168201806040525081019062000259919062000758565b6040516020016200026b9190620008bc565b6040516020818303038152906040526005908051906020019062000291929190620003f1565b508073ffffffffffffffffffffffffffffffffffffffff1663313ce5676040518163ffffffff1660e01b8152600401602060405180830381865afa158015620002de573d6000803e3d6000fd5b505050506040513d601f19601f8201168201806040525081019062000304919062000920565b600760006101000a81548160ff021916908360ff16021790555050620009b7565b600033905090565b60008060009054906101000a900473ffffffffffffffffffffffffffffffffffffffff169050816000806101000a81548173ffffffffffffffffffffffffffffffffffffffff021916908373ffffffffffffffffffffffffffffffffffffffff1602179055508173ffffffffffffffffffffffffffffffffffffffff168173ffffffffffffffffffffffffffffffffffffffff167f8be0079c531659141344cd1fd0a4f28419497f9722a3daafe3b4186f6b6457e060405160405180910390a35050565b828054620003ff9062000981565b90600052602060002090601f0160209004810192826200042357600085556200046f565b82601f106200043e57805160ff19168380011785556200046f565b828001600101855582156200046f579182015b828111156200046e57825182559160200191906001019062000451565b5b5090506200047e919062000482565b5090565b5b808211156200049d57600081600090555060010162000483565b5090565b6000604051905090565b600080fd5b600080fd5b600073ffffffffffffffffffffffffffffffffffffffff82169050919050565b6000620004e282620004b5565b9050919050565b620004f481620004d5565b81146200050057600080fd5b50565b6000815190506200051481620004e9565b92915050565b600060208284031215620005335762000532620004ab565b5b6000620005438482850162000503565b91505092915050565b600082825260208201905092915050565b7f556e6465726c79696e67206164647265737320697320696e76616c6964000000600082015250565b600062000595601d836200054c565b9150620005a2826200055d565b602082019050919050565b60006020820190508181036000830152620005c88162000586565b9050919050565b600080fd5b600080fd5b6000601f19601f8301169050919050565b7f4e487b7100000000000000000000000000000000000000000000000000000000600052604160045260246000fd5b6200062482620005d9565b810181811067ffffffffffffffff82111715620006465762000645620005ea565b5b80604052505050565b60006200065b620004a1565b905062000669828262000619565b919050565b600067ffffffffffffffff8211156200068c576200068b620005ea565b5b6200069782620005d9565b9050602081019050919050565b60005b83811015620006c4578082015181840152602081019050620006a7565b83811115620006d4576000848401525b50505050565b6000620006f1620006eb846200066e565b6200064f565b90508281526020810184848401111562000710576200070f620005d4565b5b6200071d848285620006a4565b509392505050565b600082601f8301126200073d576200073c620005cf565b5b81516200074f848260208601620006da565b91505092915050565b600060208284031215620007715762000770620004ab565b5b600082015167ffffffffffffffff811115620007925762000791620004b0565b5b620007a08482850162000725565b91505092915050565b600081905092915050565b7f484c000000000000000000000000000000000000000000000000000000000000600082015250565b6000620007ec600283620007a9565b9150620007f982620007b4565b600282019050919050565b600081519050919050565b60006200081c8262000804565b620008288185620007a9565b93506200083a818560208601620006a4565b80840191505092915050565b60006200085382620007dd565b91506200086182846200080f565b915081905092915050565b7f484c200000000000000000000000000000000000000000000000000000000000600082015250565b6000620008a4600383620007a9565b9150620008b1826200086c565b600382019050919050565b6000620008c98262000895565b9150620008d782846200080f565b915081905092915050565b600060ff82169050919050565b620008fa81620008e2565b81146200090657600080fd5b50565b6000815190506200091a81620008ef565b92915050565b600060208284031215620009395762000938620004ab565b5b6000620009498482850162000909565b91505092915050565b7f4e487b7100000000000000000000000000000000000000000000000000000000600052602260045260246000fd5b600060028204905060018216806200099a57607f821691505b60208210811415620009b157620009b062000952565b5b50919050565b60805160a051612c7662000a3160003960008181610d0c015281816112f90152611aff015260008181610739015281816107fc0152818161090701528181610ac001528181610ccf01528181610d90015281816112bd0152818161138b0152818161163f015281816116dd0152611ac30152612c766000f3fe608060405234801561001057600080fd5b50600436106101735760003560e01c80636dcea85f116100de578063a457c2d711610097578063ce96cb7711610071578063ce96cb771461048a578063dd62ed3e146104ba578063f1be1679146104ea578063f2fde38b1461050857610173565b8063a457c2d7146103fa578063a9059cbb1461042a578063c6e6f5921461045a57610173565b80636dcea85f146103385780636e553f651461035457806370a0823114610384578063715018a6146103b45780638da5cb5b146103be57806395d89b41146103dc57610173565b806323b872dd1161013057806323b872dd146102625780632e1a7d4d14610292578063313ce567146102ae57806338d52e0f146102cc57806339509351146102ea57806342de4e9c1461031a57610173565b806301e1d1141461017857806306fdde031461019657806307a2d13a146101b4578063095ea7b3146101e45780630a28a4771461021457806318160ddd14610244575b600080fd5b610180610524565b60405161018d9190611e9b565b60405180910390f35b61019e610533565b6040516101ab9190611f4f565b60405180910390f35b6101ce60048036038101906101c99190611fa2565b6105c5565b6040516101db9190611e9b565b60405180910390f35b6101fe60048036038101906101f9919061202d565b6105d7565b60405161020b9190612088565b60405180910390f35b61022e60048036038101906102299190611fa2565b6105fa565b60405161023b9190611e9b565b60405180910390f35b61024c61060c565b6040516102599190611e9b565b60405180910390f35b61027c600480360381019061027791906120a3565b610616565b6040516102899190612088565b60405180910390f35b6102ac60048036038101906102a79190611fa2565b610645565b005b6102b66108ec565b6040516102c39190612112565b60405180910390f35b6102d4610903565b6040516102e1919061213c565b60405180910390f35b61030460048036038101906102ff919061202d565b61092b565b6040516103119190612088565b60405180910390f35b6103226109d5565b60405161032f9190611e9b565b60405180910390f35b610352600480360381019061034d9190612157565b6109e4565b005b61036e60048036038101906103699190612184565b610ba2565b60405161037b9190611e9b565b60405180910390f35b61039e60048036038101906103999190612157565b610ea5565b6040516103ab9190611e9b565b60405180910390f35b6103bc610eee565b005b6103c6610f02565b6040516103d3919061213c565b60405180910390f35b6103e4610f2b565b6040516103f19190611f4f565b60405180910390f35b610414600480360381019061040f919061202d565b610fbd565b6040516104219190612088565b60405180910390f35b610444600480360381019061043f919061202d565b6110a7565b6040516104519190612088565b60405180910390f35b610474600480360381019061046f9190611fa2565b6110ca565b6040516104819190611e9b565b60405180910390f35b6104a4600480360381019061049f9190612157565b6110dc565b6040516104b19190611e9b565b60405180910390f35b6104d460048036038101906104cf91906121c4565b611125565b6040516104e19190611e9b565b60405180910390f35b6104f26111ac565b6040516104ff919061213c565b60405180910390f35b610522600480360381019061051d9190612157565b611235565b005b600061052e6112b9565b905090565b60606005805461054290612233565b80601f016020809104026020016040519081016040528092919081815260200182805461056e90612233565b80156105bb5780601f10610590576101008083540402835291602001916105bb565b820191906000526020600020905b81548152906001019060200180831161059e57829003601f168201915b5050505050905090565b60006105d08261137a565b9050919050565b6000806105e2611467565b90506105ef81858561146f565b600191505092915050565b60006106058261163a565b9050919050565b6000600454905090565b600080610621611467565b905061062e8582856117c4565b610639858585611850565b60019150509392505050565b6000600160003373ffffffffffffffffffffffffffffffffffffffff1673ffffffffffffffffffffffffffffffffffffffff168152602001908152602001600020549050818110156106cc576040517f08c379a00000000000000000000000000000000000000000000000000000000081526004016106c3906122d7565b60405180910390fd5b60006106d78361163a565b905081600460008282546106eb9190612326565b925050819055506000600160003373ffffffffffffffffffffffffffffffffffffffff1673ffffffffffffffffffffffffffffffffffffffff168152602001908152602001600020819055507f000000000000000000000000000000000000000000000000000000000000000073ffffffffffffffffffffffffffffffffffffffff1663095ea7b3600760019054906101000a900473ffffffffffffffffffffffffffffffffffffffff166004546040518363ffffffff1660e01b81526004016107b692919061235a565b6020604051808303816000875af11580156107d5573d6000803e3d6000fd5b505050506040513d601f19601f820116820180604052508101906107f991906123af565b507f000000000000000000000000000000000000000000000000000000000000000073ffffffffffffffffffffffffffffffffffffffff1663a9059cbb33836040518363ffffffff1660e01b815260040161085592919061235a565b6020604051808303816000875af1158015610874573d6000803e3d6000fd5b505050506040513d601f19601f8201168201806040525081019061089891906123af565b503373ffffffffffffffffffffffffffffffffffffffff167f884edad9ce6fa2440d8a54cc123490eb96d2768479d49ff9c7366125a9424364836040516108df9190611e9b565b60405180910390a2505050565b6000600760009054906101000a900460ff16905090565b60007f0000000000000000000000000000000000000000000000000000000000000000905090565b600080610936611467565b90506109ca818585600260008673ffffffffffffffffffffffffffffffffffffffff1673ffffffffffffffffffffffffffffffffffffffff16815260200190815260200160002060008973ffffffffffffffffffffffffffffffffffffffff1673ffffffffffffffffffffffffffffffffffffffff168152602001908152602001600020546109c591906123dc565b61146f565b600191505092915050565b60006109df611abe565b905090565b6109ec611bb6565b600073ffffffffffffffffffffffffffffffffffffffff16600760019054906101000a900473ffffffffffffffffffffffffffffffffffffffff1673ffffffffffffffffffffffffffffffffffffffff1614610a7d576040517f08c379a0000000000000000000000000000000000000000000000000000000008152600401610a749061247e565b60405180910390fd5b80600760016101000a81548173ffffffffffffffffffffffffffffffffffffffff021916908373ffffffffffffffffffffffffffffffffffffffff1602179055507f000000000000000000000000000000000000000000000000000000000000000073ffffffffffffffffffffffffffffffffffffffff1663095ea7b3600760019054906101000a900473ffffffffffffffffffffffffffffffffffffffff167fffffffffffffffffffffffffffffffffffffffffffffffffffffffffffffffff6040518363ffffffff1660e01b8152600401610b5b92919061235a565b6020604051808303816000875af1158015610b7a573d6000803e3d6000fd5b505050506040513d601f19601f82011682018060405250810190610b9e91906123af565b5050565b6000808311610be6576040517f08c379a0000000000000000000000000000000000000000000000000000000008152600401610bdd906124ea565b60405180910390fd5b600073ffffffffffffffffffffffffffffffffffffffff16600760019054906101000a900473ffffffffffffffffffffffffffffffffffffffff1673ffffffffffffffffffffffffffffffffffffffff161415610c78576040517f08c379a0000000000000000000000000000000000000000000000000000000008152600401610c6f9061257c565b60405180910390fd5b600073ffffffffffffffffffffffffffffffffffffffff168273ffffffffffffffffffffffffffffffffffffffff161415610cb857610cb5611467565b91505b610cc183611c34565b9050610ccd8282611c75565b7f000000000000000000000000000000000000000000000000000000000000000073ffffffffffffffffffffffffffffffffffffffff166323b872dd837f0000000000000000000000000000000000000000000000000000000000000000866040518463ffffffff1660e01b8152600401610d4a9392919061259c565b6020604051808303816000875af1158015610d69573d6000803e3d6000fd5b505050506040513d601f19601f82011682018060405250810190610d8d91906123af565b507f000000000000000000000000000000000000000000000000000000000000000073ffffffffffffffffffffffffffffffffffffffff1663095ea7b3600760019054906101000a900473ffffffffffffffffffffffffffffffffffffffff166004546040518363ffffffff1660e01b8152600401610e0d92919061235a565b6020604051808303816000875af1158015610e2c573d6000803e3d6000fd5b505050506040513d601f19601f82011682018060405250810190610e5091906123af565b508173ffffffffffffffffffffffffffffffffffffffff167fe1fffcc4923d04b559f4d29a8bfc6cda04eb5b0d3c460751c2402c5c5cc9109c84604051610e979190611e9b565b60405180910390a292915050565b6000600160008373ffffffffffffffffffffffffffffffffffffffff1673ffffffffffffffffffffffffffffffffffffffff168152602001908152602001600020549050919050565b610ef6611bb6565b610f006000611dbe565b565b60008060009054906101000a900473ffffffffffffffffffffffffffffffffffffffff16905090565b606060068054610f3a90612233565b80601f0160208091040260200160405190810160405280929190818152602001828054610f6690612233565b8015610fb35780601f10610f8857610100808354040283529160200191610fb3565b820191906000526020600020905b815481529060010190602001808311610f9657829003601f168201915b5050505050905090565b600080610fc8611467565b90506000600260008373ffffffffffffffffffffffffffffffffffffffff1673ffffffffffffffffffffffffffffffffffffffff16815260200190815260200160002060008673ffffffffffffffffffffffffffffffffffffffff1673ffffffffffffffffffffffffffffffffffffffff1681526020019081526020016000205490508381101561108e576040517f08c379a000000000000000000000000000000000000000000000000000000000815260040161108590612645565b60405180910390fd5b61109b828686840361146f565b60019250505092915050565b6000806110b2611467565b90506110bf818585611850565b600191505092915050565b60006110d582611c34565b9050919050565b6000600160008373ffffffffffffffffffffffffffffffffffffffff1673ffffffffffffffffffffffffffffffffffffffff168152602001908152602001600020549050919050565b6000600260008473ffffffffffffffffffffffffffffffffffffffff1673ffffffffffffffffffffffffffffffffffffffff16815260200190815260200160002060008373ffffffffffffffffffffffffffffffffffffffff1673ffffffffffffffffffffffffffffffffffffffff16815260200190815260200160002054905092915050565b60008073ffffffffffffffffffffffffffffffffffffffff16600760019054906101000a900473ffffffffffffffffffffffffffffffffffffffff1673ffffffffffffffffffffffffffffffffffffffff16141561120d5761120c612665565b5b600760019054906101000a900473ffffffffffffffffffffffffffffffffffffffff16905090565b61123d611bb6565b600073ffffffffffffffffffffffffffffffffffffffff168173ffffffffffffffffffffffffffffffffffffffff1614156112ad576040517f08c379a00000000000000000000000000000000000000000000000000000000081526004016112a490612706565b60405180910390fd5b6112b681611dbe565b50565b60007f000000000000000000000000000000000000000000000000000000000000000073ffffffffffffffffffffffffffffffffffffffff166370a082317f00000000000000000000000000000000000000000000000000000000000000006040518263ffffffff1660e01b8152600401611334919061213c565b602060405180830381865afa158015611351573d6000803e3d6000fd5b505050506040513d601f19601f82011682018060405250810190611375919061273b565b905090565b6000806113856112b9565b905060007f000000000000000000000000000000000000000000000000000000000000000073ffffffffffffffffffffffffffffffffffffffff166370a08231600760019054906101000a900473ffffffffffffffffffffffffffffffffffffffff166040518263ffffffff1660e01b8152600401611404919061213c565b602060405180830381865afa158015611421573d6000803e3d6000fd5b505050506040513d601f19601f82011682018060405250810190611445919061273b565b905080826114539190612326565b8461145e9190612797565b92505050919050565b600033905090565b600073ffffffffffffffffffffffffffffffffffffffff168373ffffffffffffffffffffffffffffffffffffffff1614156114df576040517f08c379a00000000000000000000000000000000000000000000000000000000081526004016114d69061283a565b60405180910390fd5b600073ffffffffffffffffffffffffffffffffffffffff168273ffffffffffffffffffffffffffffffffffffffff16141561154f576040517f08c379a0000000000000000000000000000000000000000000000000000000008152600401611546906128cc565b60405180910390fd5b80600260008573ffffffffffffffffffffffffffffffffffffffff1673ffffffffffffffffffffffffffffffffffffffff16815260200190815260200160002060008473ffffffffffffffffffffffffffffffffffffffff1673ffffffffffffffffffffffffffffffffffffffff168152602001908152602001600020819055508173ffffffffffffffffffffffffffffffffffffffff168373ffffffffffffffffffffffffffffffffffffffff167f8c5be1e5ebec7d5bd14f71427d1e84f3dd0314c0f7b2291e5b200ac8c7c3b9258360405161162d9190611e9b565b60405180910390a3505050565b6000807f000000000000000000000000000000000000000000000000000000000000000073ffffffffffffffffffffffffffffffffffffffff166370a08231306040518263ffffffff1660e01b8152600401611696919061213c565b602060405180830381865afa1580156116b3573d6000803e3d6000fd5b505050506040513d601f19601f820116820180604052508101906116d7919061273b565b905060007f000000000000000000000000000000000000000000000000000000000000000073ffffffffffffffffffffffffffffffffffffffff166370a08231600760019054906101000a900473ffffffffffffffffffffffffffffffffffffffff166040518263ffffffff1660e01b8152600401611756919061213c565b602060405180830381865afa158015611773573d6000803e3d6000fd5b505050506040513d601f19601f82011682018060405250810190611797919061273b565b905080826117a591906123dc565b82856117b191906128ec565b6117bb9190612797565b92505050919050565b60006117d08484611125565b90507fffffffffffffffffffffffffffffffffffffffffffffffffffffffffffffffff811461184a578181101561183c576040517f08c379a000000000000000000000000000000000000000000000000000000000815260040161183390612992565b60405180910390fd5b611849848484840361146f565b5b50505050565b600073ffffffffffffffffffffffffffffffffffffffff168373ffffffffffffffffffffffffffffffffffffffff1614156118c0576040517f08c379a00000000000000000000000000000000000000000000000000000000081526004016118b790612a24565b60405180910390fd5b600073ffffffffffffffffffffffffffffffffffffffff168273ffffffffffffffffffffffffffffffffffffffff161415611930576040517f08c379a000000000000000000000000000000000000000000000000000000000815260040161192790612ab6565b60405180910390fd5b6000600160008573ffffffffffffffffffffffffffffffffffffffff1673ffffffffffffffffffffffffffffffffffffffff168152602001908152602001600020549050818110156119b7576040517f08c379a00000000000000000000000000000000000000000000000000000000081526004016119ae90612b48565b60405180910390fd5b818103600160008673ffffffffffffffffffffffffffffffffffffffff1673ffffffffffffffffffffffffffffffffffffffff1681526020019081526020016000208190555081600160008573ffffffffffffffffffffffffffffffffffffffff1673ffffffffffffffffffffffffffffffffffffffff1681526020019081526020016000206000828254611a4c91906123dc565b925050819055508273ffffffffffffffffffffffffffffffffffffffff168473ffffffffffffffffffffffffffffffffffffffff167fddf252ad1be2c89b69c2b068fc378daa952ba7f163c4a11628f55a4df523b3ef84604051611ab09190611e9b565b60405180910390a350505050565b6000807f000000000000000000000000000000000000000000000000000000000000000073ffffffffffffffffffffffffffffffffffffffff166370a082317f00000000000000000000000000000000000000000000000000000000000000006040518263ffffffff1660e01b8152600401611b3a919061213c565b602060405180830381865afa158015611b57573d6000803e3d6000fd5b505050506040513d601f19601f82011682018060405250810190611b7b919061273b565b90506000811115611bad57606481611b916112b9565b611b9b9190612797565b611ba591906128ec565b915050611bb3565b60009150505b90565b611bbe611467565b73ffffffffffffffffffffffffffffffffffffffff16611bdc610f02565b73ffffffffffffffffffffffffffffffffffffffff1614611c32576040517f08c379a0000000000000000000000000000000000000000000000000000000008152600401611c2990612bb4565b60405180910390fd5b565b600080611c3f6112b9565b1415611c4d57819050611c70565b611c556112b9565b60045483611c6391906128ec565b611c6d9190612797565b90505b919050565b600073ffffffffffffffffffffffffffffffffffffffff168273ffffffffffffffffffffffffffffffffffffffff161415611ce5576040517f08c379a0000000000000000000000000000000000000000000000000000000008152600401611cdc90612c20565b60405180910390fd5b8060046000828254611cf791906123dc565b9250508190555080600160008473ffffffffffffffffffffffffffffffffffffffff1673ffffffffffffffffffffffffffffffffffffffff1681526020019081526020016000206000828254611d4d91906123dc565b925050819055508173ffffffffffffffffffffffffffffffffffffffff16600073ffffffffffffffffffffffffffffffffffffffff167fddf252ad1be2c89b69c2b068fc378daa952ba7f163c4a11628f55a4df523b3ef83604051611db29190611e9b565b60405180910390a35050565b60008060009054906101000a900473ffffffffffffffffffffffffffffffffffffffff169050816000806101000a81548173ffffffffffffffffffffffffffffffffffffffff021916908373ffffffffffffffffffffffffffffffffffffffff1602179055508173ffffffffffffffffffffffffffffffffffffffff168173ffffffffffffffffffffffffffffffffffffffff167f8be0079c531659141344cd1fd0a4f28419497f9722a3daafe3b4186f6b6457e060405160405180910390a35050565b6000819050919050565b611e9581611e82565b82525050565b6000602082019050611eb06000830184611e8c565b92915050565b600081519050919050565b600082825260208201905092915050565b60005b83811015611ef0578082015181840152602081019050611ed5565b83811115611eff576000848401525b50505050565b6000601f19601f8301169050919050565b6000611f2182611eb6565b611f2b8185611ec1565b9350611f3b818560208601611ed2565b611f4481611f05565b840191505092915050565b60006020820190508181036000830152611f698184611f16565b905092915050565b600080fd5b611f7f81611e82565b8114611f8a57600080fd5b50565b600081359050611f9c81611f76565b92915050565b600060208284031215611fb857611fb7611f71565b5b6000611fc684828501611f8d565b91505092915050565b600073ffffffffffffffffffffffffffffffffffffffff82169050919050565b6000611ffa82611fcf565b9050919050565b61200a81611fef565b811461201557600080fd5b50565b60008135905061202781612001565b92915050565b6000806040838503121561204457612043611f71565b5b600061205285828601612018565b925050602061206385828601611f8d565b9150509250929050565b60008115159050919050565b6120828161206d565b82525050565b600060208201905061209d6000830184612079565b92915050565b6000806000606084860312156120bc576120bb611f71565b5b60006120ca86828701612018565b93505060206120db86828701612018565b92505060406120ec86828701611f8d565b9150509250925092565b600060ff82169050919050565b61210c816120f6565b82525050565b60006020820190506121276000830184612103565b92915050565b61213681611fef565b82525050565b6000602082019050612151600083018461212d565b92915050565b60006020828403121561216d5761216c611f71565b5b600061217b84828501612018565b91505092915050565b6000806040838503121561219b5761219a611f71565b5b60006121a985828601611f8d565b92505060206121ba85828601612018565b9150509250929050565b600080604083850312156121db576121da611f71565b5b60006121e985828601612018565b92505060206121fa85828601612018565b9150509250929050565b7f4e487b7100000000000000000000000000000000000000000000000000000000600052602260045260246000fd5b6000600282049050600182168061224b57607f821691505b6020821081141561225f5761225e612204565b5b50919050565b7f77697468647261773a20596f7520646f206e6f74206861766520656e6f75676860008201527f2073686172657300000000000000000000000000000000000000000000000000602082015250565b60006122c1602783611ec1565b91506122cc82612265565b604082019050919050565b600060208201905081810360008301526122f0816122b4565b9050919050565b7f4e487b7100000000000000000000000000000000000000000000000000000000600052601160045260246000fd5b600061233182611e82565b915061233c83611e82565b92508282101561234f5761234e6122f7565b5b828203905092915050565b600060408201905061236f600083018561212d565b61237c6020830184611e8c565b9392505050565b61238c8161206d565b811461239757600080fd5b50565b6000815190506123a981612383565b92915050565b6000602082840312156123c5576123c4611f71565b5b60006123d38482850161239a565b91505092915050565b60006123e782611e82565b91506123f283611e82565b9250827fffffffffffffffffffffffffffffffffffffffffffffffffffffffffffffffff03821115612427576124266122f7565b5b828201905092915050565b7f4d61726b657420616c7265616479207365740000000000000000000000000000600082015250565b6000612468601283611ec1565b915061247382612432565b602082019050919050565b600060208201905081810360008301526124978161245b565b9050919050565b7f56616c7565206d7573742062652067726561746572207468616e203000000000600082015250565b60006124d4601c83611ec1565b91506124df8261249e565b602082019050919050565b60006020820190508181036000830152612503816124c7565b9050919050565b7f4465706f73697473206e6f7420616c6c6f77656420756e74696c206d61726b6560008201527f7420697320736574000000000000000000000000000000000000000000000000602082015250565b6000612566602883611ec1565b91506125718261250a565b604082019050919050565b6000602082019050818103600083015261259581612559565b9050919050565b60006060820190506125b1600083018661212d565b6125be602083018561212d565b6125cb6040830184611e8c565b949350505050565b7f45524332303a2064656372656173656420616c6c6f77616e63652062656c6f7760008201527f207a65726f000000000000000000000000000000000000000000000000000000602082015250565b600061262f602583611ec1565b915061263a826125d3565b604082019050919050565b6000602082019050818103600083015261265e81612622565b9050919050565b7f4e487b7100000000000000000000000000000000000000000000000000000000600052600160045260246000fd5b7f4f776e61626c653a206e6577206f776e657220697320746865207a65726f206160008201527f6464726573730000000000000000000000000000000000000000000000000000602082015250565b60006126f0602683611ec1565b91506126fb82612694565b604082019050919050565b6000602082019050818103600083015261271f816126e3565b9050919050565b60008151905061273581611f76565b92915050565b60006020828403121561275157612750611f71565b5b600061275f84828501612726565b91505092915050565b7f4e487b7100000000000000000000000000000000000000000000000000000000600052601260045260246000fd5b60006127a282611e82565b91506127ad83611e82565b9250826127bd576127bc612768565b5b828204905092915050565b7f45524332303a20617070726f76652066726f6d20746865207a65726f2061646460008201527f7265737300000000000000000000000000000000000000000000000000000000602082015250565b6000612824602483611ec1565b915061282f826127c8565b604082019050919050565b6000602082019050818103600083015261285381612817565b9050919050565b7f45524332303a20617070726f766520746f20746865207a65726f20616464726560008201527f7373000000000000000000000000000000000000000000000000000000000000602082015250565b60006128b6602283611ec1565b91506128c18261285a565b604082019050919050565b600060208201905081810360008301526128e5816128a9565b9050919050565b60006128f782611e82565b915061290283611e82565b9250817fffffffffffffffffffffffffffffffffffffffffffffffffffffffffffffffff048311821515161561293b5761293a6122f7565b5b828202905092915050565b7f45524332303a20696e73756666696369656e7420616c6c6f77616e6365000000600082015250565b600061297c601d83611ec1565b915061298782612946565b602082019050919050565b600060208201905081810360008301526129ab8161296f565b9050919050565b7f45524332303a207472616e736665722066726f6d20746865207a65726f20616460008201527f6472657373000000000000000000000000000000000000000000000000000000602082015250565b6000612a0e602583611ec1565b9150612a19826129b2565b604082019050919050565b60006020820190508181036000830152612a3d81612a01565b9050919050565b7f45524332303a207472616e7366657220746f20746865207a65726f206164647260008201527f6573730000000000000000000000000000000000000000000000000000000000602082015250565b6000612aa0602383611ec1565b9150612aab82612a44565b604082019050919050565b60006020820190508181036000830152612acf81612a93565b9050919050565b7f45524332303a207472616e7366657220616d6f756e742065786365656473206260008201527f616c616e63650000000000000000000000000000000000000000000000000000602082015250565b6000612b32602683611ec1565b9150612b3d82612ad6565b604082019050919050565b60006020820190508181036000830152612b6181612b25565b9050919050565b7f4f776e61626c653a2063616c6c6572206973206e6f7420746865206f776e6572600082015250565b6000612b9e602083611ec1565b9150612ba982612b68565b602082019050919050565b60006020820190508181036000830152612bcd81612b91565b9050919050565b7f5f6d696e743a206d696e7420746f20746865207a65726f206164647265737300600082015250565b6000612c0a601f83611ec1565b9150612c1582612bd4565b602082019050919050565b60006020820190508181036000830152612c3981612bfd565b905091905056fea26469706673582212201cec39821d9e7b200dcd7ec3f3f708d3fc6e2e1adcc5b5e4ed6246d26646926064736f6c634300080a0033",
  "immutableReferences": {
    "2107": [
      {
        "length": 32,
        "start": 1849
      },
      {
        "length": 32,
        "start": 2044
      },
      {
        "length": 32,
        "start": 2311
      },
      {
        "length": 32,
        "start": 2752
      },
      {
        "length": 32,
        "start": 3279
      },
      {
        "length": 32,
        "start": 3472
      },
      {
        "length": 32,
        "start": 4797
      },
      {
        "length": 32,
        "start": 5003
      },
      {
        "length": 32,
        "start": 5695
      },
      {
        "length": 32,
        "start": 5853
      },
      {
        "length": 32,
        "start": 6851
      }
    ],
    "2109": [
      {
        "length": 32,
        "start": 3340
      },
      {
        "length": 32,
        "start": 4857
      },
      {
        "length": 32,
        "start": 6911
      }
    ]
  },
  "source": "// SPDX-License-Identifier: MIT\npragma solidity =0.8.10;\n\nimport \"@openzeppelin/contracts/access/Ownable.sol\";\nimport \"@openzeppelin/contracts/token/ERC20/ERC20.sol\";\nimport \"@openzeppelin/contracts/token/ERC20/IERC20.sol\";\nimport \"./IBurnable.sol\";\nimport \"./IMarket.sol\";\nimport \"./IMintable.sol\";\nimport \"./IVault.sol\";\n\nstruct Reward {\n    uint256 balance;\n    uint256 start;\n}\n\ncontract Vault is Ownable, IERC20, IVault {\n    // ERC20\n    mapping(address => uint256) private _balances;\n    mapping(address => mapping(address => uint256)) private _allowances;\n\n    mapping(address => uint256) private _shares;\n\n    uint256 private _totalSupply;\n    string private _name;\n    string private _symbol;\n    uint8 private _decimals;\n\n    address private immutable _underlying;\n    address private immutable _self;\n\n    uint256 private constant PRECISSION = 1_000;\n    address private _market;\n\n    function name() public view returns (string memory) {\n        return _name;\n    }\n\n    function symbol() public view returns (string memory) {\n        return _symbol;\n    }\n\n    function decimals() public view returns (uint8) {\n        return _decimals;\n    }\n\n    function totalSupply() public view returns (uint256) {\n        return _totalSupply;\n    }\n\n    function balanceOf(address account) public view returns (uint256) {\n        return _balances[account];\n    }\n\n    function getMarket() external view returns (address) {\n        assert(_market != address(0));\n        return _market;\n    }\n\n    function setMarket(address market) public onlyOwner() {\n        require(_market == address(0), \"Market already set\");\n\n        // could do some checks here\n        // require(IMarket(_market).getTarget() < 200, \"Market target is too high\");\n        _market = market;\n\n        IERC20(_underlying).approve(_market, type(uint256).max);\n    }\n\n    function getPerformance() external view returns (uint256) {\n        return _getPerformance();\n    }\n\n    function _getPerformance() private view returns (uint256) {\n        uint256 underlyingBalance = IERC20(_underlying).balanceOf(_self);\n\n        if (underlyingBalance > 0)\n            return (_totalAssets() / underlyingBalance) * 100;\n\n        return 0;\n    }\n\n    // function getInPlay() external view returns (uint256) {\n    //     return _getInPlay();\n    // }\n\n    // function _getInPlay() private view returns (uint256) {        \n    //     return IERC20(_underlying).balanceOf(_market);\n    // }\n\n    function convertToAssets(uint256 shares) external view returns (uint256 assets) {\n        return _convertToAssets(shares);\n    }\n\n    function _convertToAssets(uint256 shares) private view returns (uint256 assets) {\n        // return _convertToAssets(amount);\n        uint256 underlyingBalance = _totalAssets();\n        uint256 inPlay = IERC20(_underlying).balanceOf(_market);\n\n        assets = shares / (underlyingBalance - inPlay);\n    }\n\n    function convertToShares(uint256 assets) external view returns (uint256 shares) {\n        return _convertToShares(assets);\n    }\n\n    function _convertToShares(uint256 assets) private view returns (uint256 shares) {\n        if (_totalAssets() == 0) {\n            shares = assets;\n        } else {\n            shares = (assets * _totalSupply) / _totalAssets();\n        }\n    }\n\n    // IERC4626\n    function asset() external view returns (address assetTokenAddress) {\n        return _underlying;\n    }\n\n    function totalAssets() external view returns (uint256) {\n        return _totalAssets();\n    }\n\n    function _totalAssets() private view returns (uint256) {\n        return IERC20(_underlying).balanceOf(_self);\n    }\n\n    constructor(address underlying) {\n        require(underlying != address(0), \"Underlying address is invalid\");\n\n        _self = address(this);\n        _underlying = underlying;\n        \n        _symbol = string(abi.encodePacked(\"HL\", ERC20(underlying).symbol()));\n        _name = string(abi.encodePacked(\"HL \", ERC20(underlying).name()));\n        _decimals = ERC20(underlying).decimals();\n    }\n\n    function transfer(address to, uint256 amount) public returns (bool) {\n        address owner = _msgSender();\n        _transfer(owner, to, amount);\n        return true;\n    }\n\n    function allowance(address owner, address spender) public view returns (uint256) {\n        return _allowances[owner][spender];\n    }\n\n    function approve(address spender, uint256 amount) public returns (bool) {\n        address owner = _msgSender();\n        _approve(owner, spender, amount);\n        return true;\n    }\n\n    function transferFrom(address from, address to, uint256 amount) public returns (bool) {\n        address spender = _msgSender();\n        _spendAllowance(from, spender, amount);\n        _transfer(from, to, amount);\n        return true;\n    }\n\n    function increaseAllowance(address spender, uint256 addedValue) public virtual returns (bool) {\n        address owner = _msgSender();\n        _approve(owner, spender, _allowances[owner][spender] + addedValue);\n        return true;\n    }\n\n    function decreaseAllowance(address spender, uint256 subtractedValue) public virtual returns (bool) {\n        address owner = _msgSender();\n        uint256 currentAllowance = _allowances[owner][spender];\n        require(currentAllowance >= subtractedValue, \"ERC20: decreased allowance below zero\");\n        unchecked {\n            _approve(owner, spender, currentAllowance - subtractedValue);\n        }\n\n        return true;\n    }\n\n    // Add underlying tokens to the pool\n    function deposit(uint256 assets, address receiver) external returns (uint256 shares) {\n        require(assets > 0, \"Value must be greater than 0\");\n        require(_market != address(0), \"Deposits not allowed until market is set\"); // make this a modifier\n\n        if (receiver == address(0))\n            receiver = _msgSender();\n\n        shares = _convertToShares(assets);\n        _mint(receiver, shares);\n\n        IERC20(_underlying).transferFrom(receiver, _self, assets);\n        IERC20(_underlying).approve(_market, _totalSupply);\n\n        emit Deposit(receiver, assets);\n    }\n\n    function maxWithdraw(address owner) external view returns (uint256 maxAssets) {\n        maxAssets = _balances[owner];\n    }\n\n    function previewWithdraw(uint256 assets) external view returns (uint256 shares) {\n        shares = _previewWithdraw(assets);\n    }\n\n    function _previewWithdraw(uint256 assets) private view returns (uint256) {\n        uint256 underlyingBalance = IERC20(_underlying).balanceOf(address(this));\n        uint256 inPlay = IERC20(_underlying).balanceOf(_market);\n\n        return assets * underlyingBalance / (underlyingBalance + inPlay);\n    }\n\n    // Exit your position\n    function withdraw(uint256 shares) external {\n        uint256 balance = _balances[msg.sender];\n        require(balance >= shares, \"withdraw: You do not have enough shares\");\n\n        uint256 amount = _previewWithdraw(shares);\n        _totalSupply -= balance;\n        _balances[msg.sender] = 0;\n        \n        IERC20(_underlying).approve(_market, _totalSupply);\n        IERC20(_underlying).transfer(msg.sender, amount);\n        // decreaseAllowance(_market, amount);\n\n        emit Withdraw(msg.sender, balance);\n    }\n\n    function _mint(address account, uint256 amount) private {\n        require(account != address(0), \"_mint: mint to the zero address\");\n\n        _totalSupply += amount;\n        _balances[account] += amount;\n        emit Transfer(address(0), account, amount);\n    }\n\n    function _burn(address account, uint256 amount) private {\n        require(account != address(0), \"_burn: burn from the zero address\");\n\n        uint256 accountBalance = _balances[account];\n        require(accountBalance >= amount, \"_burn: burn amount exceeds balance\");\n\n        _balances[account] -= amount;\n        _totalSupply -= amount;\n\n        emit Transfer(account, address(0), amount);\n    }\n\n    function _transfer(address from, address to,uint256 amount) internal {\n        require(from != address(0), \"ERC20: transfer from the zero address\");\n        require(to != address(0), \"ERC20: transfer to the zero address\");\n\n        uint256 fromBalance = _balances[from];\n        require(fromBalance >= amount, \"ERC20: transfer amount exceeds balance\");\n        unchecked {\n            _balances[from] = fromBalance - amount;\n        }\n        _balances[to] += amount;\n\n        emit Transfer(from, to, amount);\n    }\n\n    function _approve(address owner, address spender, uint256 amount) internal {\n        require(owner != address(0), \"ERC20: approve from the zero address\");\n        require(spender != address(0), \"ERC20: approve to the zero address\");\n\n        _allowances[owner][spender] = amount;\n        emit Approval(owner, spender, amount);\n    }\n\n    function _spendAllowance(address owner, address spender, uint256 amount) internal {\n        uint256 currentAllowance = allowance(owner, spender);\n        if (currentAllowance != type(uint256).max) {\n            require(currentAllowance >= amount, \"ERC20: insufficient allowance\");\n            unchecked {\n                _approve(owner, spender, currentAllowance - amount);\n            }\n        }\n    }\n\n    modifier onlyMarket() {\n        require(_market != address(0), \"Market not set\");\n        require(msg.sender == _market, \"Only the market can call this function\");\n        _;\n    }\n}",
  "sourcePath": "/Users/lucascullen/GitHub/HorseLink/horse.link/contracts/Vault.sol",
  "compiler": {
    "name": "solc",
    "version": "0.8.10+commit.fc410830.Emscripten.clang"
  },
  "schemaVersion": "3.4.10",
  "updatedAt": "2022-10-02T21:10:44.196Z",
  "devdoc": {
    "kind": "dev",
    "methods": {
      "allowance(address,address)": {
        "details": "Returns the remaining number of tokens that `spender` will be allowed to spend on behalf of `owner` through {transferFrom}. This is zero by default. This value changes when {approve} or {transferFrom} are called."
      },
      "approve(address,uint256)": {
        "details": "Sets `amount` as the allowance of `spender` over the caller's tokens. Returns a boolean value indicating whether the operation succeeded. IMPORTANT: Beware that changing an allowance with this method brings the risk that someone may use both the old and the new allowance by unfortunate transaction ordering. One possible solution to mitigate this race condition is to first reduce the spender's allowance to 0 and set the desired value afterwards: https://github.com/ethereum/EIPs/issues/20#issuecomment-263524729 Emits an {Approval} event."
      },
      "balanceOf(address)": {
        "details": "Returns the amount of tokens owned by `account`."
      },
      "owner()": {
        "details": "Returns the address of the current owner."
      },
      "renounceOwnership()": {
        "details": "Leaves the contract without owner. It will not be possible to call `onlyOwner` functions anymore. Can only be called by the current owner. NOTE: Renouncing ownership will leave the contract without an owner, thereby removing any functionality that is only available to the owner."
      },
      "totalSupply()": {
        "details": "Returns the amount of tokens in existence."
      },
      "transfer(address,uint256)": {
        "details": "Moves `amount` tokens from the caller's account to `to`. Returns a boolean value indicating whether the operation succeeded. Emits a {Transfer} event."
      },
      "transferFrom(address,address,uint256)": {
        "details": "Moves `amount` tokens from `from` to `to` using the allowance mechanism. `amount` is then deducted from the caller's allowance. Returns a boolean value indicating whether the operation succeeded. Emits a {Transfer} event."
      },
      "transferOwnership(address)": {
        "details": "Transfers ownership of the contract to a new account (`newOwner`). Can only be called by the current owner."
      }
    },
    "version": 1
  },
  "userdoc": {
    "kind": "user",
    "methods": {},
    "version": 1
  }
}